:020000040800F2
:10000000005000203D170008B10B0008B70B000896
:10001000BD0B0008C30B0008C90B0008000000005E
:10002000000000000000000000000000CF0B0008EE
:10003000DB0B000800000000E70B0008F30B0008D2
:100040008517000885170008851700088517000820
:100050008517000885170008851700088517000810
:100060008517000885170008851700088517000800
:1000700085170008851700088517000885170008F0
:1000800085170008851700088517000885170008E0
:1000900085170008851700088517000885170008D0
:1000A00085170008851700088517000885170008C0
:1000B000010C0008150C00088517000885170008BA
:1000C00085170008851700088517000885170008A0
:1000D0008517000885170008290C000885170008F7
:1000E0003D0C000885170008851700080000000077
:1000F0000000000000000000000000000000000000
:0C01000000000000000000005FF808F1A3
:10010C0010B5054C237833B9044B13B10448AFF345
:10011C0000800123237010BDB400002000000000FB
:10012C00404A000808B5034B1BB103490348AFF321
:10013C00008008BD00000000B8000020404A000804
:10014C0090B583B000AF0023FB719EE0FA79FB7988
:10015C005249895C524AD154FA79FB795149895CEC
:10016C004E4AD154FB79002B08D1FC7902214E4820
:10017C0001F0A8FE03461A464A4B1A55FB79012B8F
:10018C0008D1FC791021484801F09CFE03461A4620
:10019C00444B1A55FB79022B08D1FC7901214348B9
:1001AC0001F090FE03461A463E4B1A55FB79032B81
:1001BC0008D1FC7901213C4801F084FE03461A4623
:1001CC00384B1A55FB79364AD25CFB793349CB5CF8
:1001DC009A4257D1FB79314AD25CFB793149CB5CDD
:1001EC009A424FD1FB79324AD25CFB792C49CB5CD9
:1001FC009A4222D0FA79FB792949895C2C4AD1544C
:10020C00FB792B4AD35C002B09D1FB79294A0021BD
:10021C00D154FB79284A642122F8131032E0FB797F
:10022C00244A0121D154FB79244A0021D154FB7971
:10023C00234A012142F8231024E0FB791C4AD35CA9
:10024C00002B1FD1FB791C4A32F81320013A91B2D2
:10025C00194A22F81310FB79174A32F81330002B85
:10026C0010D1FB79124A0121D154FB79114A012199
:10027C00D154FB79124A012142F82310FB790F4A21
:10028C000021D154FB790133FB71FB79032B7FF6F1
:10029C005DAF00BF00BF0C37BD4690BD1400002001
:1002AC00180000201000002000080140000C014044
:1002BC001C00002020000020A4010020AC01002024
:1002CC000000002080B483B000AF0346FB71FB79C3
:1002DC00032B01D9002312E0FB790B4AD35C002BD2
:1002EC000CD1FB79094A52F82330012B06D1FB794A
:1002FC00064A002142F82310012300E0002318468F
:10030C000C37BD4680BC7047200000200000002048
:10031C0080B500AF01F032FA00F048F800F074F943
:10032C0000F048F900F084F800F0CEF8164802F01E
:10033C0085FA0021154802F02BFB012214491548BF
:10034C0003F069FA01220021134800F067FA012238
:10035C000021124800F062FA01220021104800F03E
:10036C005DFA012200210F4800F058FA0122002109
:10037C000D4800F053FA00F00BFD00F061FF00F0A7
:10038C007DFF00F0AFFAFCE7D00000201801002040
:10039C00B0010020600100204D0100080916000882
:1003AC001D170008691600088D16000880B590B05E
:1003BC0000AF07F1180328220021184603F0B8FEFD
:1003CC003B1D00221A605A609A60DA601A6102239F
:1003DC00BB610123BB621023FB6202237B630023FE
:1003EC00BB634FF46013FB6307F11803184601F06D
:1003FC00BBFD0346002B01D000F0B0F90F237B604E
:10040C000223BB600023FB604FF480633B6100233D
:10041C007B613B1D0221184602F028F80346002B95
:10042C0001D000F09BF900BF4037BD4680BD0000F5
:10043C0080B586B000AF07F1080300221A605A603D
:10044C009A60DA603B4600221A605A601D4B4FF0EE
:10045C0080421A601B4B41F6FF025A60194B002276
:10046C009A60184B6322DA60164B00221A61154B06
:10047C0000229A61134802F091F90346002B01D037
:10048C0000F06CF94FF48053BB6007F10803194678
:10049C000C4802F0E5FC0346002B01D000F05EF99D
:1004AC0000233B6000237B603B461946054803F064
:1004BC0063F80346002B01D000F050F900BF183749
:1004CC00BD4680BDD000002080B58EB000AF07F1D6
:1004DC00280300221A605A609A60DA6007F1200340
:1004EC0000221A605A603B1D00221A605A609A6002
:1004FC00DA601A615A619A612C4B2D4A1A602B4BA7
:10050C0040F2FF325A60294B00229A60274B13228B
:10051C00DA60264B00221A61244B00229A61234890
:10052C0002F03CF90346002B01D000F017F94FF410
:10053C008053BB6207F1280319461C4802F090FC5B
:10054C000346002B01D000F009F9184802F0C8F955
:10055C000346002B01D000F001F900233B6200237D
:10056C007B6207F120031946104803F005F8034697
:10057C00002B01D000F0F2F860237B600023BB60FD
:10058C000023FB6000237B613B1D002219460748BA
:10059C0002F0A8FB0346002B01D000F0DFF8034863
:1005AC0000F088FA00BF3837BD4680BD1801002026
:1005BC000004004080B500AF114B124A1A60104B7A
:1005CC004FF416525A600E4B00229A600C4B0022CC
:1005DC00DA600B4B00221A61094B0C225A61084B52
:1005EC0000229A61064B0022DA61054803F034F8C8
:1005FC000346002B01D000F0B1F800BF80BD00BF56
:10060C00600100200044004080B588B000AF07F1C5
:10061C00100300221A605A609A60DA60454B9B699D
:10062C00444A43F010039361424B9B6903F010035F
:10063C00FB60FB683F4B9B693E4A43F02003936190
:10064C003C4B9B6903F02003BB60BB68394B9B6937
:10065C00384A43F004039361364B9B6903F004035F
:10066C007B607B68334B9B69324A43F00803936190
:10067C00304B9B6903F008033B603B6800224FF44E
:10068C00A4612D4801F035FC00224FF487612B4802
:10069C0001F02FFC4FF400533B61294B7B6100238D
:1006AC00BB6107F110031946264801F087FA1323A2
:1006BC003B6100237B610023BB6107F110031946EA
:1006CC001D4801F07BFA4FF4A4633B6101237B616D
:1006DC000023BB610223FB6107F110031946164886
:1006EC0001F06CFA01233B6100237B610023BB61A9
:1006FC0007F110031946114801F060FA4FF48763B3
:10070C003B6101237B610023BB610223FB6107F189
:10071C0010031946094801F051FA00220021282043
:10072C0001F065F9282001F07EF900BF2037BD46A5
:10073C0080BD00BF0010024000080140000C0140C9
:10074C00000011100010014080B582B000AF78603D
:10075C0000F00AF800BF0837BD4680BD80B400AF7A
:10076C0072B600BFFEE7000080B483B000AF002378
:10077C00FB7147E0FA79284913469B0013449B0010
:10078C000B441B68002B3AD0FA79234913469B0083
:10079C0013449B000B4404331B68002B1CD1FA79C7
:1007AC001D4913469B0013449B000B440C33012240
:1007BC001A70F979FA7918480B469B000B449B0088
:1007CC00034408331968144813469B0013449B00D8
:1007DC0003440433196012E0FA790F4913469B0065
:1007EC0013449B000B4404331B68FA79591E0A48C6
:1007FC0013469B0013449B00034404331960FB799C
:10080C000133FB71FB79272BB4D900BF00BF0C3728
:10081C00BD4680BC704700BFB401002080B487B0D7
:10082C0000AFF860B9607A600023FB7502E0FB7DD5
:10083C000133FB75FA7D284913469B0013449B003A
:10084C000B441B68002B02D0FB7D272BEFD9FB7DC3
:10085C00282B04D1214B29221A60282336E0FA7D5B
:10086C00F9681D4813469B0013449B000344196010
:10087C00FA7DB968184813469B0013449B00034447
:10088C0004331960FA7D7968134813469B001344AE
:10089C009B00034408331960FA7D0F4913469B00F3
:1008AC0013449B000B440C3300221A700C4B1B6836
:1008BC005A1C0B490A60FA7D1846074913469B00DF
:1008CC0013449B000B4410331860FB7D18461C37F7
:1008DC00BD4680BC704700BFB4010020D40400208A
:1008EC00D804002080B582B000AF0023FB7120E05B
:1008FC00FA79144913469B0013449B000B440C33A8
:10090C001B78012B12D1FA790E4913469B00134424
:10091C009B000B441B689847FA790A4913469B00C5
:10092C0013449B000B440C3300221A70FB790133E7
:10093C00FB71FB79272BDBD900BF00BF0837BD4605
:10094C0080BD00BFB401002080B483B000AF7860DC
:10095C001D497A6813469B0013449B000B441B688B
:10096C00002B04D1194B2A221A60002327E01649C8
:10097C007A6813469B0013449B000B4400221A60B8
:10098C0011497A6813469B0013449B000B440433B3
:10099C0000221A600C497A6813469B0013449B0092
:1009AC000B44083300221A6007497A6813469B00EF
:1009BC0013449B000B440C3300221A70012318467D
:1009CC000C37BD4680BC7047B4010020D404002015
:1009DC0080B485B000AF154B9B69144A43F00103FA
:1009EC009361124B9B6903F00103BB60BB680F4B17
:1009FC00DB690E4A43F08053D3610C4BDB6903F087
:100A0C0080537B607B680A4B5B68FB60FB6823F060
:100A1C00E063FB60FB6843F00073FB60044AFB6817
:100A2C00536000BF1437BD4680BC704700100240B5
:100A3C000000014080B584B000AF78607B681B6813
:100A4C00B3F1804F14D1194BDB69184A43F0010301
:100A5C00D361164BDB6903F00103FB60FB680022DA
:100A6C0000211C2000F0C3FF1C2000F0DCFF18E06C
:100A7C007B681B680E4A934213D10C4BDB690B4A03
:100A8C0043F00203D361094BDB6903F00203BB6043
:100A9C00BB68002200211D2000F0A9FF1D2000F0E2
:100AAC00C2FF00BF1037BD4680BD00BF0010024022
:100ABC000004004080B588B000AF786007F11003E7
:100ACC0000221A605A609A60DA607B681B680F4AD1
:100ADC00934217D10E4B9B690D4A43F0040393616B
:100AEC000B4B9B6903F00403FB60FB6840233B61E9
:100AFC0002237B610223FB6107F1100319460548B1
:100B0C0001F05CF800BF2037BD4680BD00040040FA
:100B1C00001002400008014080B588B000AF78603A
:100B2C0007F1100300221A605A609A60DA607B6841
:100B3C001B68194A93422BD1184BDB69174A43F4B3
:100B4C000033D361154BDB6903F40033FB60FB68A6
:100B5C00124B9B69114A43F0040393610F4B9B6941
:100B6C0003F00403BB60BB680C233B6102237B6175
:100B7C000223FB6107F110031946094801F01EF826
:100B8C0000220021262000F032FF262000F04BFF2F
:100B9C0000BF2037BD4680BD00440040001002401D
:100BAC000008014080B400AFFEE780B400AFFEE760
:100BBC0080B400AFFEE780B400AFFEE780B400AFB6
:100BCC00FEE780B400AF00BFBD4680BC704780B468
:100BDC0000AF00BFBD4680BC704780B400AF00BF03
:100BEC00BD4680BC704780B500AF00F00DFE00BF65
:100BFC0080BD000080B500AF024801F06BFF00BF64
:100C0C0080BD00BFD000002080B500AF024801F0CD
:100C1C0061FF00BF80BD00BF1801002080B500AF90
:100C2C00024802F029FE00BF80BD00BF6001002019
:100C3C0080B500AF4FF4005001F074F900BF80BDD7
:100C4C0080B586B000AF7860144A154BD31A7B611F
:100C5C007B693B61134B1B68002B02D1114B124A71
:100C6C001A60104B1A687B6813443A699A4207D28F
:100C7C0003F034FA03460C221A604FF0FF3309E0FC
:100C8C00084B1B68FB60074B1A687B681344054ACA
:100C9C001360FB6818461837BD4680BD0050002015
:100CAC0000040000DC0400202005002080B400AF0C
:100CBC0000BFBD4680BC704780B500AF0022082144
:100CCC00104801F016F900224FF480610E4801F033
:100CDC0010F9002220210B4801F00BF90022102101
:100CEC00084801F006F900224FF48061054801F034
:100CFC0000F900224FF48071034801F0FAF800BFAC
:100D0C0080BD00BF000C01400008014080B400AF62
:100D1C000A4B00221A600A4B00221A60094B1B680E
:100D2C001422DA62074B1422DA60064B1B6800228D
:100D3C005A6300BFBD4680BC704700BF0005002051
:100D4C00080500201801002080B59AB000AF0C4BAC
:100D5C0000221A600B4B00221A603B1D00220A492C
:100D6C00184603F0EDF903469AB2391D4FF47A7325
:100D7C00064802F0BEFC00BF6837BD4680BD00BF10
:100D8C00F0040020F4040020584A00086001002000
:100D9C0080B500AFFFF790FFFFF7B8FFFFF7D4FF68
:100DAC0000BF80BD80B500AF0C4B1B68002B04D17D
:100DBC000B4B00221A60FFF7A9FF012208210948FA
:100DCC0001F097F800224FF48061074801F091F888
:100DDC00064B1B68064A136000BF80BDF804002058
:100DEC00FC040020000C01400008014038000020E9
:100DFC00F004002080B500AF0F4B1B68002B09D00E
:100E0C000E4B01221A60FFF781FF0B4B1B68013B55
:100E1C00094A136000220821094801F06AF80122EE
:100E2C004FF48061074801F064F8074B1B68074AD0
:100E3C00136000BF80BD00BFF8040020FC0400203C
:100E4C00000C01400008014034000020F004002098
:100E5C0080B500AF01220821074801F04AF80122B1
:100E6C004FF48061054801F044F8054B1B68054AB6
:100E7C00136000BF80BD00BF000C014000080140A2
:100E8C003C000020F004002080B59AB000AF104B5D
:100E9C001B68013B0E4A13600D4B1B68002B0FDBCC
:100EAC000B4B1A683B1D0B49184603F049F90346D6
:100EBC009AB2391D4FF47A73074802F01AFC02E01B
:100ECC00034B00221A6000BF6837BD4680BD00BFCF
:100EDC00F0040020584A00086001002080B500AFE3
:100EEC000A4B1B68002B04D1094B00221A60FFF738
:100EFC000DFF00222021074800F0FBFF01221021EA
:100F0C00044800F0F6FF00BF80BD00BFF8040020CD
:100F1C00FC040020000C014080B500AF0C4B1B689A
:100F2C00002B09D00B4B01221A60FFF7EFFE084B88
:100F3C001B68013B064A136001222021064800F081
:100F4C00D8FF00221021044800F0D3FF00BF80BD61
:100F5C00F8040020FC040020000C014080B500AF18
:100F6C0001222021044800F0C4FF01221021024874
:100F7C0000F0BFFF00BF80BD000C014080B500AF8A
:100F8C001C4B1B68012B1AD1012208211A4800F0B6
:100F9C00B0FF00224FF48061184800F0AAFF002235
:100FAC002021154800F0A5FF01221021124800F065
:100FBC00A0FF104B1B6801330E4A136017E0002290
:100FCC0008210D4800F095FF00224FF480610B487A
:100FDC0000F08FFF00222021074800F08AFF00223A
:100FEC001021054800F085FF024B01221A6000BF5A
:100FFC0080BD00BF44000020000C014000080140EF
:10100C0080B500AF1C4B1B68012B1AD100220821A4
:10101C001A4800F06EFF01224FF48061184800F06E
:10102C0068FF01222021154800F063FF00221021E7
:10103C00124800F05EFF104B1B6801330E4A136020
:10104C0017E0002208210D4800F053FF00224FF456
:10105C0080610B4800F04DFF00222021074800F072
:10106C0048FF00221021054800F043FF024B0122EB
:10107C001A6000BF80BD00BF44000020000C01407E
:10108C000008014080B500AF1C4B1B68012B1AD126
:10109C00012208211A4800F02CFF01224FF4806134
:1010AC00184800F026FF01222021154800F021FFEE
:1010BC0001221021124800F01CFF104B1B68013359
:1010CC000E4A136017E0002208210D4800F011FFB2
:1010DC0000224FF480610B4800F00BFF002220210E
:1010EC00074800F006FF00221021054800F001FF20
:1010FC00024B01221A6000BF80BD00BF44000020DB
:10110C00000C01400008014080B500AF0F4B1B687C
:10111C00012B0CD101224FF480710D4800F0E9FE37
:10112C0000224FF480610B4800F0E3FE0BE000223C
:10113C004FF48071064800F0DCFE01224FF4806110
:10114C00044800F0D6FE00BF80BD00BFFC040020A8
:10115C0000080140000C014080B483B000AF7860FF
:10116C00124A7B681360124B1B680133104A1360E0
:10117C00104B1B685A000E4B1B689A4203DB0E4B3C
:10118C0032221A600DE00D4B1B685A00094B1B688C
:10119C0013445A00064B1B689A4202DB064B192279
:1011AC001A6000BF0C37BD4680BC70470405002098
:1011BC000805002038000020400000203C000020E2
:1011CC0080B400AF074B1B680A2B03D1054B0022E0
:1011DC001A6002E0034B0A221A6000BFBD4680BCB5
:1011EC00704700BF0005002080B500AF0F4B1B6897
:1011FC00012B11D10E4B1B68002B07DC0D4B1B6810
:10120C001846FFF7A9FFFFF7DBFF08E0084B1B6848
:10121C00013B074A136002E0074B00221A60064BA1
:10122C001A68064B1B685A6300BF80BDFC04002083
:10123C0004050020400000200005002018010020BB
:10124C0080B582B000AF01237B6009E0094B1A68BE
:10125C007B6813441846FFF777FB7B6801337B6090
:10126C00054B1B687A689A42F0DD00BF00BF083757
:10127C00BD4680BD280000203000002080B500AFA6
:10128C00494B1A68494B1B681A44494B1B68134459
:10129C00642202FB03F31A4664214648FFF7BEFAA8
:1012AC00424B1B680133642202FB03F13E4B1A686C
:1012BC003E4B1B681A443E4B1B681344642202FBD2
:1012CC0003F31A463C48FFF7A9FA394B1B68013364
:1012DC00642202FB03F1344B1A68344B1B681A442A
:1012EC00334B1B681344642202FB03F31A46334846
:1012FC00FFF794FA2E4B1B685A1C2C4B1B6813449B
:10130C00642202FB03F1284B1A68284B1B681A4411
:10131C00274B1B681344642202FB03F31A4628482C
:10132C00FFF77CFA224B1B685A1C1F4B1B6813449B
:10133C00642202FB03F11C4B1A681C4B1B681A44F9
:10134C001B4B1B681344642202FB03F31A461D4813
:10135C00FFF764FA144B1A68144B1B681A44144BAD
:10136C001B681344642202FB03F31A4664211648DB
:10137C00FFF754FA002200211448FFF74FFA00221D
:10138C0000211348FFF74AFA642200211148FFF7A5
:10139C0045FA114B00221A60104B01221A60104BB7
:1013AC0009221A6000BF80BD3C00002034000020E0
:1013BC0038000020B10D0008E90E00085D0E000891
:1013CC00690F0008010E0008250F00081511000810
:1013DC00F5110008950E0008E00400202C000020F8
:1013EC003000002080B500AF192232210848FFF7E9
:1013FC0015FA084B01221A60074B00221A60074BA2
:10140C0003221A60064B01221A6000BF80BD00BF88
:10141C00890F000844000020E00400202C0000206C
:10142C003000002080B500AF192232210848FFF7A8
:10143C00F5F9084B01221A60074B00221A60074B82
:10144C0002221A60064B01221A6000BF80BD00BF49
:10145C000D10000844000020E00400202C000020A7
:10146C003000002080B500AF192232210848FFF768
:10147C00D5F9084B01221A60074B00221A60074B62
:10148C0004221A60064B01221A6000BF80BD00BF07
:10149C009110000844000020E00400202C000020E3
:1014AC003000002080B58EB000AF0F4B1B680133AD
:1014BC000D4A13600C4B1A683B1D0C49184602F080
:1014CC003FFE03469AB2391D4FF47A73084802F076
:1014DC0010F9054B1B68632B02DD034B00221A60CD
:1014EC0000BF3837BD4680BDE0040020584A0008D4
:1014FC006001002080B500AF0E4B1B680E4A1360D4
:10150C000E4B1B680E4A13600E4B1B680E4A136081
:10151C00084B00221A600B4B00221A60074B00226A
:10152C001A60FFF735FCFFF78BFEFFF7A7FE00BF35
:10153C0080BD00BFE804002038000020E404002037
:10154C0034000020EC0400203C00002080B400AFEC
:10155C000A4B0A221A600A4B0F221A60094B052209
:10156C001A60094B00221A60084B00221A60084BC3
:10157C0000221A6000BFBD4680BC704738000020B6
:10158C00340000203C000020E8040020EC04002083
:10159C00E404002080B400AF094B1B68002B09DD6C
:1015AC00084B1B68002B05DD074B1B68002B01DD6E
:1015BC00012300E000231846BD4680BC704700BFE5
:1015CC00E8040020E4040020EC04002080B400AF08
:1015DC00074B1A68074B1B681A44074B1B689A4247
:1015EC0001D1012300E000231846BD4680BC7047A2
:1015FC00E8040020EC040020E404002080B500AFD7
:10160C000020FEF75FFE0346002B1FD0FFF7C0FB48
:10161C00FFF716FE104B1B68013B032B18D801A2D9
:10162C0052F823F0411600084D1600084716000822
:10163C0053160008FFF7D6FE0BE0FFF7F3FE08E0A9
:10164C00FFF710FF05E0FFF719FE02E000BF00E016
:10165C0000BF00BF80BD00BF2C00002080B500AFD4
:10166C000120FEF72FFE0346002B05D0034B1B6811
:10167C00012B01D0FFF716FF00BF80BD2C0000200E
:10168C0080B500AF0220FEF71DFE0346002B2ED0C6
:10169C001A4B1B68013B032B2BD801A252F823F0E9
:1016AC00BD160008E7160008DD160008F116000844
:1016BC00FFF770FF0346002B1DD0FFF787FF034693
:1016CC00002B02D0FFF716FF15E0FFF73FFF12E0EB
:1016DC000B4B1B680B4A13600EE0094B1B680A4A44
:1016EC00136009E0064B1B68084A136004E000BF56
:1016FC0002E000BF00E000BF00BF80BD2C00002056
:10170C00E0040020E8040020E4040020EC040020A5
:10171C0080B500AF0320FEF7D5FD0346002B02D0A9
:10172C00024B02221A6000BF80BD00BFF8040020EB
:10173C000C480D490D4A002302E0D458C450043320
:10174C00C4188C42F9D30A4A0A4C002301E01360F6
:10175C000432A242FBD3FFF7A9FA02F0C5FCFEF754
:10176C00D7FD704700000020B4000020C84A0008D4
:10177C00B400002020050020FEE7000080B500AF7B
:10178C00084B1B68074A43F010031360032000F05A
:10179C0023F9002000F008F8FFF71AF90023184687
:1017AC0080BD00BF0020024080B582B000AF7860E1
:1017BC00124B1A68124B1B7819464FF47A73B3FB11
:1017CC00F1F3B2FBF3F3184600F03BF90346002BA0
:1017DC0001D001230EE07B680F2B0AD80022796818
:1017EC004FF0FF3000F003F9064A7B6813600023CA
:1017FC0000E0012318460837BD4680BD24000020B8
:10180C004C0000204800002080B400AF054B1B7832
:10181C001A46054B1B681344034A136000BFBD46B0
:10182C0080BC70474C0000200C05002080B400AF39
:10183C00024B1B681846BD4680BC70470C05002047
:10184C0080B485B000AF78607B6803F00703FB6061
:10185C000C4BDB68BB60BA684FF6FF031340BB60F0
:10186C00FB681A02BB68134343F0BF6343F40033B5
:10187C00BB60044ABB68D36000BF1437BD4680BC54
:10188C00704700BF00ED00E080B400AF044BDB6894
:10189C001B0A03F007031846BD4680BC704700BF07
:1018AC0000ED00E080B483B000AF0346FB7197F904
:1018BC000730002B0BDBFB7903F01F02064997F96D
:1018CC0007305B09012000FA02F241F8232000BF27
:1018DC000C37BD4680BC704700E100E080B483B09B
:1018EC0000AF03463960FB7197F90730002B0ADB18
:1018FC003B68DAB20C4997F907301201D2B20B44AB
:10190C0083F800230AE03B68DAB20849FB7903F05C
:10191C000F03043B1201D2B20B441A7600BF0C37F2
:10192C00BD4680BC704700BF00E100E000ED00E068
:10193C0080B489B000AFF860B9607A60FB6803F0DE
:10194C000703FB61FB69C3F10703042B28BF0423C6
:10195C00BB61FB690433062B02D9FB69033B00E036
:10196C0000237B614FF0FF32BB6902FA03F3DA43C9
:10197C00BB681A407B699A404FF0FF317B6901FAD2
:10198C0003F3D9437B680B40134318462437BD46F9
:10199C0080BC704780B582B000AF78607B68013B3B
:1019AC00B3F1807F01D301230FE00A4A7B68013B2E
:1019BC0053600F214FF0FF30FFF790FF054B0022D3
:1019CC009A60044B07221A60002318460837BD465C
:1019DC0080BD00BF10E000E080B582B000AF786041
:1019EC007868FFF72DFF00BF0837BD4680BD80B576
:1019FC0086B000AF0346B9607A60FB7300237B614D
:101A0C00FFF742FF78617A68B9687869FFF790FF51
:101A1C00024697F90F3011461846FFF75FFF00BFDB
:101A2C001837BD4680BD80B582B000AF0346FB7150
:101A3C0097F907301846FFF735FF00BF0837BD464A
:101A4C0080BD80B582B000AF78607868FFF7A2FFE8
:101A5C00034618460837BD4680BD80B485B000AF3C
:101A6C0078600023FB737B6893F82130022B08D03D
:101A7C007B6804229A637B68002283F82020012370
:101A8C0020E07B681B681A687B681B6822F00E02DA
:101A9C001A607B681B681A687B681B6822F001025D
:101AAC001A607B681A6C7B68DB6B012101FA02F20D
:101ABC005A607B68012283F821207B68002283F81E
:101ACC002020FB7B18461437BD4680BC70470000B5
:101ADC0080B584B000AF78600023FB737B6893F80B
:101AEC002130022B05D07B6804229A630123FB73FF
:101AFC0051E07B681B681A687B681B6822F00E0239
:101B0C001A607B681B681A687B681B6822F00102EC
:101B1C001A607B681B68224A934229D07B681B6839
:101B2C00204A934222D07B681B681F4A93421AD0EA
:101B3C007B681B681D4A934212D07B681B681C4A49
:101B4C0093420AD07B681B681A4A934202D14FF425
:101B5C0080130EE04FF080730BE04FF4803308E0FD
:101B6C004FF4805305E04FF4807302E0102300E043
:101B7C000123114A53607B68012283F821207B6882
:101B8C00002283F820207B685B6B002B03D07B68E2
:101B9C005B6B78689847FB7B18461037BD4680BD59
:101BAC00080002401C000240300002404400024089
:101BBC00580002406C0002400000024080B48BB020
:101BCC0000AF7860396000237B6200233B6269E1DF
:101BDC0001227B6A02FA03F3FB613B681B68FA691A
:101BEC001340BB61BA69FB699A4240F058813B686B
:101BFC005B689A4A93425ED0984A934275D8984A49
:101C0C00934258D0964A93426FD8964A934252D0F8
:101C1C00944A934269D8944A93424CD0924A934244
:101C2C0063D8924A934246D0904A93425DD8122B85
:101C3C002AD8122B59D801A252F823F0C31C000841
:101C4C009D1C0008AF1C0008F11C0008F71C0008C4
:101C5C00F71C0008F71C0008F71C0008F71C00080C
:101C6C00F71C0008F71C0008F71C0008F71C0008FC
:101C7C00F71C0008F71C0008F71C0008F71C0008EC
:101C8C00A51C0008B91C0008794A934213D02CE01B
:101C9C003B68DB683B6229E03B68DB6804333B62F2
:101CAC0024E03B68DB6808333B621FE03B68DB6881
:101CBC000C333B621AE03B689B68002B02D1042377
:101CCC003B6213E03B689B68012B05D108233B6208
:101CDC007B68FA691A6109E008233B627B68FA6940
:101CEC005A6103E000233B6200E000BFBB69FF2B9D
:101CFC0001D87B6801E07B6804337B61BB69FF2BF7
:101D0C0002D87B6A9B0002E07B6A083B9B003B612C
:101D1C007B691A680F213B6901FA03F3DB431A4014
:101D2C00396A3B6901FA03F31A437B691A603B6811
:101D3C005B6803F08053002B00F0B1804D4B9B6926
:101D4C004C4A43F0010393614A4B9B6903F0010336
:101D5C00BB60BB68484A7B6A9B08023352F823304D
:101D6C00FB607B6A03F003039B000F2202FA03F370
:101D7C00DB43FA681340FB607B68404A934213D004
:101D8C007B683F4A93420DD07B683E4A934207D012
:101D9C007B683D4A934201D1032306E0042304E00F
:101DAC00022302E0012300E000237A6A02F003021E
:101DBC0092009340FA681343FB602F497B6A9B089F
:101DCC000233FA6841F823203B685B6803F48033E4
:101DDC00002B06D02D4B1A682C49BB6913430B60A2
:101DEC0006E02A4B1A68BB69DB43284913400B6099
:101DFC003B685B6803F40033002B06D0234B5A6816
:101E0C002249BB6913434B6006E0204B5A68BB69FF
:101E1C00DB431E4913404B603B685B6803F4801343
:101E2C00002B06D0194B9A681849BB6913438B6079
:101E3C0006E0164B9A68BB69DB43144913408B6070
:101E4C003B685B6803F40013002B21D00F4BDA685E
:101E5C000E49BB691343CB6021E000BF0000321078
:101E6C0000003110000022100000211000001210A0
:101E7C000000111000100240000001400008014059
:101E8C00000C01400010014000140140000401400E
:101E9C000B4BDA68BB69DB4309491340CB607B6AA7
:101EAC0001337B623B681A687B6A22FA03F3002BCE
:101EBC007FF48EAE00BF00BF2C37BD4680BC704790
:101ECC000004014080B485B000AF78600B467B8085
:101EDC007B689A687B881340002B02D00123FB732C
:101EEC0001E00023FB73FB7B18461437BD4680BC16
:101EFC00704780B483B000AF78600B467B8013468C
:101F0C007B707B78002B03D07A887B681A6103E0A6
:101F1C007B881A047B681A6100BF0C37BD4680BCF5
:101F2C007047000080B582B000AF0346FB80084BC1
:101F3C005A69FB881340002B06D0054AFB88536175
:101F4C00FB88184600F006F800BF0837BD4680BD78
:101F5C000004014080B483B000AF0346FB8000BF97
:101F6C000C37BD4680BC704780B586B000AF78603A
:101F7C007B68002B01D1012372E27B681B6803F0A4
:101F8C000103002B00F08780924B5B6803F00C037D
:101F9C00042B0CD08F4B5B6803F00C03082B12D175
:101FAC008C4B5B6803F48033B3F5803F0BD1894BCA
:101FBC001B6803F40033002B6CD07B685B68002B30
:101FCC0068D101234CE27B685B68B3F5803F06D196
:101FDC00804B1B687F4A43F4803313602EE07B6890
:101FEC005B68002B0CD17B4B1B687A4A23F4803343
:101FFC001360784B1B68774A23F4802313601DE031
:10200C007B685B68B3F5A02F0CD1724B1B68714ACF
:10201C0043F4802313606F4B1B686E4A43F4803388
:10202C0013600BE06B4B1B686A4A23F4803313601C
:10203C00684B1B68674A23F4802313607B685B68DA
:10204C00002B13D0FFF7F2FB386108E0FFF7EEFB33
:10205C0002463B69D31A642B01D9032300E25D4B82
:10206C001B6803F40033002BF0D014E0FFF7DEFB09
:10207C00386108E0FFF7DAFB02463B69D31A642BA0
:10208C0001D90323ECE1534B1B6803F40033002B01
:10209C00F0D100E000BF7B681B6803F00203002B4B
:1020AC0063D04C4B5B6803F00C03002B0BD0494BFB
:1020BC005B6803F00C03082B1CD1464B5B6803F4E4
:1020CC008033002B16D1434B1B6803F00203002B0B
:1020DC0005D07B681B69012B01D00123C0E13D4B6E
:1020EC001B6823F0F8027B685B69DB0039491343FA
:1020FC000B603AE07B681B69002B20D0364B012229
:10210C001A60FFF793FB386108E0FFF78FFB02467C
:10211C003B69D31A022B01D90323A1E12D4B1B6878
:10212C0003F00203002BF0D02A4B1B6823F0F802BB
:10213C007B685B69DB00274913430B6015E0264B7A
:10214C0000221A60FFF772FB386108E0FFF76EFBA4
:10215C0002463B69D31A022B01D9032380E11D4BA4
:10216C001B6803F00203002BF0D17B681B6803F0A3
:10217C000803002B3AD07B689B69002B19D0174BB6
:10218C0001221A60FFF752FB386108E0FFF74EFBA3
:10219C0002463B69D31A022B01D9032360E10D4B94
:1021AC005B6A03F00203002BF0D0012000F0D8FA98
:1021BC001CE00A4B00221A60FFF738FB38610FE075
:1021CC00FFF734FB02463B69D31A022B08D90323D1
:1021DC0046E100BF0010024000004242800442422F
:1021EC00924B5B6A03F00203002BE9D17B681B68FE
:1021FC0003F00403002B00F0A6800023FB758B4B2F
:10220C00DB6903F08053002B0DD1884BDB69874AC7
:10221C0043F08053D361854BDB6903F08053BB6083
:10222C00BB680123FB75824B1B6803F48073002B86
:10223C0018D17F4B1B687E4A43F480731360FFF701
:10224C00F5FA386108E0FFF7F1FA02463B69D31A58
:10225C00642B01D9032303E1754B1B6803F48073D2
:10226C00002BF0D07B68DB68012B06D16F4B1B6A0F
:10227C006E4A43F0010313622DE07B68DB68002B90
:10228C000CD16A4B1B6A694A23F001031362674B3A
:10229C001B6A664A23F0040313621CE07B68DB684C
:1022AC00052B0CD1614B1B6A604A43F0040313628B
:1022BC005E4B1B6A5D4A43F0010313620BE05B4B00
:1022CC001B6A5A4A23F001031362584B1B6A574A84
:1022DC0023F0040313627B68DB68002B15D0FFF737
:1022EC00A5FA38610AE0FFF7A1FA02463B69D31A56
:1022FC0041F28832934201D90323B1E04B4B1B6A64
:10230C0003F00203002BEED014E0FFF78FFA3861D4
:10231C000AE0FFF78BFA02463B69D31A41F2883286
:10232C00934201D903239BE0404B1B6A03F0020349
:10233C00002BEED1FB7D012B05D13C4BDB693B4ADD
:10234C0023F08053D3617B68DB69002B00F087801E
:10235C00364B5B6803F00C03082B61D07B68DB69A0
:10236C00022B46D1334B00221A60FFF75FFA38611B
:10237C0008E0FFF75BFA02463B69D31A022B01D93E
:10238C0003236DE0294B1B6803F00073002BF0D185
:10239C007B681B6AB3F5803F08D1244B5B6823F440
:1023AC0000327B689B68214913434B601F4B5B6871
:1023BC0023F474127B68196A7B685B6A0B431B49B4
:1023CC0013434B601B4B01221A60FFF72FFA386145
:1023DC0008E0FFF72BFA02463B69D31A022B01D90E
:1023EC0003233DE0114B1B6803F00073002BF0D06E
:1023FC0035E0104B00221A60FFF718FA386108E03C
:10240C00FFF714FA02463B69D31A022B01D90323B6
:10241C0026E0064B1B6803F00073002BF0D11EE086
:10242C007B68DB69012B07D1012319E00010024006
:10243C0000700040600042420B4B5B68FB60FB6825
:10244C0003F480327B681B6A9A4206D1FB6803F462
:10245C0070127B685B6A9A4201D0012300E0002372
:10246C0018461837BD4680BD0010024080B584B0B8
:10247C0000AF786039607B68002B01D10123D0E07C
:10248C006A4B1B6803F007033A689A4210D9674BF2
:10249C001B6823F0070265493B6813430B60634BD1
:1024AC001B6803F007033A689A4201D00123B8E095
:1024BC007B681B6803F00203002B20D07B681B6831
:1024CC0003F00403002B05D0594B5B68584A43F4C6
:1024DC00E06353607B681B6803F00803002B05D096
:1024EC00534B5B68524A43F460535360504B5B68E8
:1024FC0023F0F0027B689B684D4913434B607B686B
:10250C001B6803F00103002B40D07B685B68012B38
:10251C0007D1474B1B6803F40033002B15D1012363
:10252C007FE07B685B68022B07D1414B1B6803F093
:10253C000073002B09D1012373E03D4B1B6803F0A2
:10254C000203002B01D101236BE0394B5B6823F0B4
:10255C0003027B685B68364913434B60FFF766F9EF
:10256C00F8600AE0FFF762F90246FB68D31A41F201
:10257C008832934201D9032353E02D4B5B6803F05F
:10258C000C027B685B689B009A42EBD1274B1B6863
:10259C0003F007033A689A4210D2244B1B6823F0CD
:1025AC00070222493B6813430B60204B1B6803F066
:1025BC0007033A689A4201D0012332E07B681B681A
:1025CC0003F00403002B08D0194B5B6823F4E06282
:1025DC007B68DB68164913434B607B681B6803F010
:1025EC000803002B09D0124B5B6823F460527B6804
:1025FC001B69DB000E4913434B6000F021F80246C7
:10260C000B4B5B681B0903F00F030A49CB5C22FAE6
:10261C0003F3094A1360094B1B681846FFF7C4F80B
:10262C00002318461037BD4680BD00BF0020024075
:10263C0000100240744A00082400002048000020CA
:10264C0090B48AB000AF294B3C1D0FCB84E80F002F
:10265C0040F201233B800023FB610023BB6100237C
:10266C007B6200237B6100233B62214B5B68FB6137
:10267C00FB6903F00C03042B02D0082B03D02BE0D6
:10268C001C4B3B622BE0FB699B0C03F00F032833C4
:10269C003B4413F8243C7B61FB6903F48033002B2F
:1026AC0012D0134B5B685B0C03F0010328333B44E3
:1026BC0013F8283CBB617B690E4A03FB02F2BB6931
:1026CC00B2FBF3F37B6204E07B690B4A02FB03F37E
:1026DC007B627B6A3B6202E0064B3B6200BF3B6A5B
:1026EC0018462837BD4690BC704700BF644A0008A6
:1026FC000010024000127A0000093D0080B400AFC7
:10270C00024B1B681846BD4680BC70472400002055
:10271C0080B500AFFFF7F2FF0246054B5B681B0A62
:10272C0003F007030349CB5C22FA03F3184680BD80
:10273C0000100240844A000880B500AFFFF7DEFFAE
:10274C000246054B5B68DB0A03F007030349CB5CCD
:10275C0022FA03F3184680BD00100240844A000898
:10276C0080B485B000AF78600A4B1B680A4AA2FBA4
:10277C0003235B0A7A6802FB03F3FB6000BFFB6870
:10278C005A1EFA60002BF9D100BF00BF1437BD46AA
:10279C0080BC704724000020D34D621080B582B0FD
:1027AC0000AF78607B68002B01D1012341E07B688E
:1027BC0093F83D30DBB2002B06D17B68002283F806
:1027CC003C207868FEF736F97B68022283F83D20BE
:1027DC007B681A687B6804331946104600F028FCA5
:1027EC007B68012283F846207B68012283F83E2017
:1027FC007B68012283F83F207B68012283F840200C
:10280C007B68012283F841207B68012283F84220F7
:10281C007B68012283F843207B68012283F84420E3
:10282C007B68012283F845207B68012283F83D20D8
:10283C00002318460837BD4680BD000080B485B023
:10284C0000AF78607B6893F83D30DBB2012B01D090
:10285C0001233AE07B68022283F83D207B681B68E9
:10286C00DA687B681B6842F00102DA607B681B68DF
:10287C00184A93420ED07B681B68B3F1804F09D085
:10288C007B681B68144A934204D07B681B68134A0C
:10289C00934211D17B681B689B6803F00703FB60B4
:1028AC00FB68062B10D07B681B681A687B681B685A
:1028BC0042F001021A6007E07B681B681A687B68AB
:1028CC001B6842F001021A60002318461437BD46FB
:1028DC0080BC7047002C0140000400400008004000
:1028EC0080B582B000AF78607B68002B01D10123EA
:1028FC0041E07B6893F83D30DBB2002B06D17B685E
:10290C00002283F83C20786800F039F87B680222BA
:10291C0083F83D207B681A687B680433194610469F
:10292C0000F086FB7B68012283F846207B6801223D
:10293C0083F83E207B68012283F83F207B680122CC
:10294C0083F840207B68012283F841207B680122B8
:10295C0083F842207B68012283F843207B680122A4
:10296C0083F844207B68012283F845207B68012290
:10297C0083F83D20002318460837BD4680BD80B43F
:10298C0083B000AF786000BF0C37BD4680BC704789
:10299C0080B584B000AF786039603B68002B09D1FA
:1029AC007B6893F83E30DBB2012B14BF012300236C
:1029BC00DBB222E03B68042B09D17B6893F83F30F3
:1029CC00DBB2012B14BF01230023DBB215E03B6803
:1029DC00082B09D17B6893F84030DBB2012B14BF74
:1029EC0001230023DBB208E07B6893F84130DBB2B3
:1029FC00012B14BF01230023DBB2002B01D00123D8
:102A0C005EE03B68002B04D17B68022283F83E20F9
:102A1C0013E03B68042B04D17B68022283F83F202F
:102A2C000BE03B68082B04D17B68022283F8402022
:102A3C0003E07B68022283F841207B681B6801223B
:102A4C003968184600F074FD7B681B681E4A934277
:102A5C0007D17B681B685A6C7B681B6842F4004288
:102A6C005A647B681B68184A93420ED07B681B68BB
:102A7C00B3F1804F09D07B681B68144A934204D091
:102A8C007B681B68124A934211D17B681B689B6858
:102A9C0003F00703FB60FB68062B10D07B681B68F8
:102AAC001A687B681B6842F001021A6007E07B68B9
:102ABC001B681A687B681B6842F001021A600023CD
:102ACC0018461037BD4680BD002C01400004004064
:102ADC000008004080B582B000AF78607B681B684E
:102AEC001B6903F00203022B22D17B681B68DB6895
:102AFC0003F00203022B1BD17B681B686FF00202F0
:102B0C001A617B6801221A777B681B689B6903F04A
:102B1C000303002B03D0786800F06FFA05E07868A7
:102B2C0000F062FA786800F071FA7B6800221A777C
:102B3C007B681B681B6903F00403042B22D17B68A0
:102B4C001B68DB6803F00403042B1BD17B681B6838
:102B5C006FF004021A617B6802221A777B681B688B
:102B6C009B6903F44073002B03D0786800F045FA9E
:102B7C0005E0786800F038FA786800F047FA7B686E
:102B8C0000221A777B681B681B6903F00803082B6B
:102B9C0022D17B681B68DB6803F00803082B1BD170
:102BAC007B681B686FF008021A617B6804221A7735
:102BBC007B681B68DB6903F00303002B03D0786888
:102BCC0000F01BFA05E0786800F00EFA786800F067
:102BDC001DFA7B6800221A777B681B681B6903F05F
:102BEC001003102B22D17B681B68DB6803F01003E9
:102BFC00102B1BD17B681B686FF010021A617B686D
:102C0C0008221A777B681B68DB6903F44073002B7E
:102C1C0003D0786800F0F1F905E0786800F0E4F989
:102C2C00786800F0F3F97B6800221A777B681B68E0
:102C3C001B6903F00103012B0ED17B681B68DB6859
:102C4C0003F00103012B07D17B681B686FF00102B5
:102C5C001A617868FDF778FD7B681B681B6903F0C7
:102C6C008003802B0ED17B681B68DB6803F080032C
:102C7C00802B07D17B681B686FF080021A61786823
:102C8C0000F0E1FC7B681B681B6903F04003402BE0
:102C9C000ED17B681B68DB6803F04003402B07D127
:102CAC007B681B686FF040021A61786800F0B7F916
:102CBC007B681B681B6903F02003202B0ED17B68FB
:102CCC001B68DB6803F02003202B07D17B681B6893
:102CDC006FF020021A61786800F0ACFC00BF083776
:102CEC00BD4680BD80B584B000AFF860B9607A6035
:102CFC00FB6893F83C30012B01D10223ACE0FB685C
:102D0C00012283F83C207B680C2B00F29F8001A2EF
:102D1C0052F823F0552D0008592E0008592E0008A2
:102D2C00592E0008952D0008592E0008592E000820
:102D3C00592E0008D72D0008592E0008592E0008CE
:102D4C00592E0008172E0008FB681B68B968184636
:102D5C0000F0D0F9FB681B689A69FB681B6842F0AD
:102D6C0008029A61FB681B689A69FB681B6822F071
:102D7C0004029A61FB681B689969BB681A69FB6855
:102D8C001B680A439A6162E0FB681B68B9681846C5
:102D9C0000F016FAFB681B689A69FB681B6842F422
:102DAC0000629A61FB681B689A69FB681B6822F4D5
:102DBC0080629A61FB681B689969BB681B691A027F
:102DCC00FB681B680A439A6141E0FB681B68B968A1
:102DDC00184600F05FFAFB681B68DA69FB681B6831
:102DEC0042F00802DA61FB681B68DA69FB681B6851
:102DFC0022F00402DA61FB681B68D969BB681A69A6
:102E0C00FB681B680A43DA6121E0FB681B68B96840
:102E1C00184600F0A9FAFB681B68DA69FB681B68A6
:102E2C0042F40062DA61FB681B68DA69FB681B68B4
:102E3C0022F48062DA61FB681B68D969BB681B6984
:102E4C001A02FB681B680A43DA6100E000BFFB68EA
:102E5C00002283F83C20002318461037BD4680BD65
:102E6C0080B584B000AF786039607B6893F83C30F3
:102E7C00012B01D10223B3E07B68012283F83C20B3
:102E8C007B68022283F83D207B681B689B68FB6093
:102E9C00FB6823F07703FB60FB6823F47F43FB6044
:102EAC007B681B68FA689A603B681B68B3F5005F27
:102EBC003ED0B3F5005F00F28780B3F5805F00F081
:102ECC008580B3F5805F7FD8702B1AD0702B7BD8A0
:102EDC00602B50D0602B77D8502B3CD0502B73D814
:102EEC00402B58D0402B6FD8302B64D0302B6BD864
:102EFC00202B60D0202B67D8002B5CD0102B5AD005
:102F0C0062E07B6818683B6899683B685A683B6864
:102F1C00DB6800F0EEFA7B681B689B68FB60FB6863
:102F2C0043F07703FB607B681B68FA689A604EE09D
:102F3C007B6818683B6899683B685A683B68DB6833
:102F4C0000F0D7FA7B681B689A687B681B6842F4B0
:102F5C0080429A603BE07B6818683B6859683B6824
:102F6C00DB681A4600F04EFA7B681B685021184645
:102F7C0000F0A5FA2BE07B6818683B6859683B6841
:102F8C00DB681A4600F06CFA7B681B6860211846F7
:102F9C0000F095FA1BE07B6818683B6859683B6841
:102FAC00DB681A4600F02EFA7B681B684021184635
:102FBC0000F085FA0BE07B681A683B681B681946C1
:102FCC00104600F07CFA02E000BF00E000BF7B6816
:102FDC00012283F83D207B68002283F83C200023EB
:102FEC0018461037BD4680BD80B483B000AF786002
:102FFC0000BF0C37BD4680BC704780B483B000AFB7
:10300C00786000BF0C37BD4680BC704780B483B07D
:10301C0000AF786000BF0C37BD4680BC704780B4F1
:10302C0083B000AF786000BF0C37BD4680BC7047E2
:10303C0080B485B000AF786039607B681B68FB603A
:10304C007B68294A93420BD07B68B3F1804F07D041
:10305C007B68264A934203D07B68254A934208D169
:10306C00FB6823F07003FB603B685B68FA681343F2
:10307C00FB607B681C4A93420BD07B68B3F1804F9A
:10308C0007D07B68194A934203D07B68184A934255
:10309C0008D1FB6823F44073FB603B68DB68FA687B
:1030AC001343FB60FB6823F080023B685B691343AE
:1030BC00FB607B68FA681A603B689A687B68DA6226
:1030CC003B681A687B689A627B68074A934203D113
:1030DC003B681A697B681A637B6801225A6100BFDE
:1030EC001437BD4680BC7047002C014000040040E2
:1030FC000008004080B487B000AF786039607B680E
:10310C001B6A23F001027B681A627B681B6A7B6175
:10311C007B685B683B617B689B69FB60FB6823F0A9
:10312C007003FB60FB6823F00303FB603B681B68C8
:10313C00FA681343FB607B6923F002037B613B68F5
:10314C009B687A6913437B617B681C4A93420CD160
:10315C007B6923F008037B613B68DB687A69134366
:10316C007B617B6923F004037B617B68134A934288
:10317C0011D13B6923F480733B613B6923F40073E9
:10318C003B613B685B693A6913433B613B689B69F4
:10319C003A6913433B617B683A695A607B68FA6809
:1031AC009A613B685A687B685A637B687A691A62D1
:1031BC0000BF1C37BD4680BC704700BF002C0140CF
:1031CC0080B487B000AF786039607B681B6A23F0ED
:1031DC0010027B681A627B681B6A7B617B685B6888
:1031EC003B617B689B69FB60FB6823F4E043FB60FD
:1031FC00FB6823F44073FB603B681B681B02FA6896
:10320C001343FB607B6923F020037B613B689B6865
:10321C001B017A6913437B617B681D4A93420DD174
:10322C007B6923F080037B613B68DB681B017A6957
:10323C0013437B617B6923F040037B617B68144AF9
:10324C00934213D13B6923F480633B613B6923F4C4
:10325C0000633B613B685B699B003A6913433B61CC
:10326C003B689B699B003A6913433B617B683A69F5
:10327C005A607B68FA689A613B685A687B689A6303
:10328C007B687A691A6200BF1C37BD4680BC7047E8
:10329C00002C014080B487B000AF786039607B6847
:1032AC001B6A23F480727B681A627B681B6A7B61E1
:1032BC007B685B683B617B68DB69FB60FB6823F0C8
:1032CC007003FB60FB6823F00303FB603B681B6827
:1032DC00FA681343FB607B6923F400737B613B68E2
:1032EC009B681B027A6913437B617B681D4A93427E
:1032FC000DD17B6923F400637B613B68DB681B02A7
:10330C007A6913437B617B6923F480637B617B68FF
:10331C00144A934213D13B6923F480533B613B69BC
:10332C0023F400533B613B685B691B013A6913430F
:10333C003B613B689B691B013A6913433B617B68AA
:10334C003A695A607B68FA68DA613B685A687B684C
:10335C00DA637B687A691A6200BF1C37BD4680BC91
:10336C00704700BF002C014080B487B000AF78607C
:10337C0039607B681B6A23F480527B681A627B6815
:10338C001B6A3B617B685B687B617B68DB69FB600C
:10339C00FB6823F4E043FB60FB6823F44073FB60A1
:1033AC003B681B681B02FA681343FB603B6923F400
:1033BC0000533B613B689B681B033A6913433B61B9
:1033CC007B680F4A934209D17B6923F480437B616C
:1033DC003B685B699B017A6913437B617B687A6903
:1033EC005A607B68FA68DA613B685A687B681A64D1
:1033FC007B683A691A6200BF1C37BD4680BC7047B7
:10340C00002C014080B487B000AFF860B9607A60DE
:10341C00FB681B6A7B61FB681B6A23F00102FB687B
:10342C001A62FB689B693B613B6923F0F0033B61CB
:10343C007B681B013A6913433B617B6923F00A03E8
:10344C007B617A69BB6813437B61FB683A699A615B
:10345C00FB687A691A6200BF1C37BD4680BC704796
:10346C0080B487B000AFF860B9607A60FB681B6A03
:10347C0023F01002FB681A62FB689B697B61FB6896
:10348C001B6A3B617B6923F470437B617B681B0384
:10349C007A6913437B613B6923F0A0033B61BB68F2
:1034AC001B013A6913433B61FB687A699A61FB68BB
:1034BC003A691A6200BF1C37BD4680BC704780B4A5
:1034CC0085B000AF786039607B689B68FB60FB68F7
:1034DC0023F07003FB603A68FB68134343F0070367
:1034EC00FB607B68FA689A6000BF1437BD4680BCED
:1034FC00704780B487B000AFF860B9607A603B6009
:10350C00FB689B687B617B6923F47F437B613B6831
:10351C001A027B681A43BB6813437A6913437B61B5
:10352C00FB687A699A6000BF1C37BD4680BC704747
:10353C0080B487B000AFF860B9607A60BB6803F004
:10354C001F03012202FA03F37B61FB681A6A7B6991
:10355C00DB431A40FB681A62FB681A6ABB6803F00B
:10356C001F03796801FA03F31A43FB681A6200BF60
:10357C001C37BD4680BC704780B485B000AF786006
:10358C0039607B6893F83C30012B01D1022346E073
:10359C007B68012283F83C207B68022283F83D2063
:1035AC007B681B685B68FB607B681B689B68BB6007
:1035BC00FB6823F07003FB603B681B68FA681343DD
:1035CC00FB607B681B68FA685A607B681B68164A4C
:1035DC0093420ED07B681B68B3F1804F09D07B6897
:1035EC001B68124A934204D07B681B68104A9342B2
:1035FC000CD1BB6823F08003BB603B685B68BA6886
:10360C001343BB607B681B68BA689A607B680122B5
:10361C0083F83D207B68002283F83C200023184669
:10362C001437BD4680BC7047002C0140000400409C
:10363C000008004080B483B000AF786000BF0C3746
:10364C00BD4680BC704780B483B000AF786000BFCB
:10365C000C37BD4680BC704780B582B000AF786037
:10366C007B68002B01D101233FE07B6893F83D3050
:10367C00DBB2002B06D17B68002283F83C207868F3
:10368C00FDF74AFA7B68242283F83D207B681B688F
:10369C00DA687B681B6822F40052DA60786800F004
:1036AC008FFC7B681B681A697B681B6822F490424C
:1036BC001A617B681B685A697B681B6822F02A02B6
:1036CC005A617B681B68DA687B681B6842F400529D
:1036DC00DA607B6800221A647B68202283F83D2024
:1036EC007B68202283F83E20002318460837BD460D
:1036FC0080BD80B58AB002AFF860B9603B601346FC
:10370C00FB8000237B61FB6893F83D30DBB2202B00
:10371C007CD1BB68002B02D0FB88002B01D101238C
:10372C0075E0FB6893F83C30012B01D102236EE06D
:10373C00FB68012283F83C20FB6800221A64FB68BA
:10374C00212283F83D20FEF771F87861FB68FA8836
:10375C009A84FB68FA88DA84FB689B68B3F5805F0F
:10376C0008D1FB681B69002B04D10023FB61BB68EB
:10377C00BB6103E0BB68FB610023BB61FB680022FB
:10378C0083F83C202AE03B6800937B69002280216F
:10379C00F86800F041FA0346002B01D0032336E011
:1037AC00FB69002B0BD1BB691B881A46FB681B6895
:1037BC00C2F308025A60BB690233BB6107E0FB69C4
:1037CC001A78FB681B685A60FB690133FB61FB6864
:1037DC00DB8C9BB2013B9AB2FB68DA84FB68DB8C16
:1037EC009BB2002BCFD13B6800937B690022402118
:1037FC00F86800F011FA0346002B01D0032306E011
:10380C00FB68202283F83D20002300E002231846A9
:10381C002037BD4680BD80B584B000AFF860B9607C
:10382C001346FB80FB6893F83E30DBB2202B1DD196
:10383C00BB68002B02D0FB88002B01D1012316E0C2
:10384C00FB6893F83C30012B01D102230FE0FB689D
:10385C00012283F83C20FB6800221A63FB881A467D
:10386C00B968F86800F022FA034600E00223184613
:10387C001037BD4680BD000080B58AB000AF7860BF
:10388C007B681B681B687B627B681B68DB683B6220
:10389C007B681B685B69FB610023BB6100237B6158
:1038AC007B6A03F00F03BB61BB69002B0DD17B6AF4
:1038BC0003F02003002B08D03B6A03F02003002BFD
:1038CC0003D0786800F0D2FA7BE1BB69002B00F0E2
:1038DC00B180FB6903F00103002B05D13B6A03F4B3
:1038EC009073002B00F0A6807B6A03F00103002B81
:1038FC000AD03B6A03F48073002B05D07B681B6CE9
:10390C0043F001027B681A647B6A03F00403002B0A
:10391C000AD0FB6903F00103002B05D07B681B6CFC
:10392C0043F002027B681A647B6A03F00203002BEB
:10393C000AD0FB6903F00103002B05D07B681B6CDC
:10394C0043F004027B681A647B6A03F00803002BC3
:10395C000FD03B6A03F02003002B04D1FB6903F06A
:10396C000103002B05D07B681B6C43F008027B68BD
:10397C001A647B681B6C002B00F01E817B6A03F0C1
:10398C002003002B07D03B6A03F02003002B02D04E
:10399C00786800F06BFA7B681B685B6903F0400386
:1039AC00002B14BF01230023DBB27B617B681B6CF3
:1039BC0003F00803002B02D17B69002B31D078680F
:1039CC0000F0ADF97B681B685B6903F04003002BCA
:1039DC0023D07B681B685A697B681B6822F0400205
:1039EC005A617B689B6B002B13D07B689B6B764A70
:1039FC005A637B689B6B1846FEF76AF80346002BEC
:103A0C0016D07B689B6B5B6B7A68926B1046984701
:103A1C000EE0786800F0ECF80AE0786800F0E8F85E
:103A2C0006E0786800F0E4F87B6800221A64C3E0D2
:103A3C0000BFC1E07B681B6B012B40F0A1807B6A4F
:103A4C0003F01003002B00F09B803B6A03F0100383
:103A5C00002B00F095800023FB607B681B681B68C3
:103A6C00FB607B681B685B68FB60FB687B681B68A2
:103A7C005B6903F04003002B4ED07B689B6B1B688B
:103A8C005B683B823B8A002B00F098807B689B8DA7
:103A9C003A8A9A4280F092807B683A8ADA857B680F
:103AAC009B6B9B69202B2BD07B681B68DA687B682F
:103ABC001B6822F48072DA607B681B685A697B6829
:103ACC001B6822F001025A617B681B685A697B688B
:103ADC001B6822F040025A617B68202283F83E204A
:103AEC007B6800221A637B681B68DA687B681B683A
:103AFC0022F01002DA607B689B6B1846FDF7ADFF75
:103B0C007B689A8D7B68DB8D9BB2D31A9BB219466E
:103B1C00786800F076F851E07B689A8D7B68DB8DD5
:103B2C009BB2D31A7B827B68DB8D9BB2002B47D078
:103B3C007B8A002B44D07B681B68DA687B681B6827
:103B4C0022F49072DA607B681B685A697B681B6888
:103B5C0022F001025A617B68202283F83E207B68A8
:103B6C0000221A637B681B68DA687B681B6822F08A
:103B7C001002DA607B8A1946786800F042F81FE080
:103B8C007B6A03F08003002B08D03B6A03F08003B0
:103B9C00002B03D0786800F002F912E07B6A03F086
:103BAC004003002B0DD03B6A03F04003002B08D0E0
:103BBC00786800F043F904E000BF02E000BF00E0C9
:103BCC0000BF2837BD4680BD833D000880B483B05C
:103BDC0000AF786000BF0C37BD4680BC704780B426
:103BEC0083B000AF786000BF0C37BD4680BC704717
:103BFC0080B483B000AF786000BF0C37BD4680BC8A
:103C0C00704780B483B000AF78600B467B8000BFF8
:103C1C000C37BD4680BC704780B584B000AFF860EF
:103C2C00B9603B601346FB712CE0BB69B3F1FF3FFD
:103C3C0028D0BB69002B07D0FDF7F8FD02463B6886
:103C4C00D31ABA699A421DD2FB681B68DA68FB6802
:103C5C001B6822F4D072DA60FB681B685A69FB6837
:103C6C001B6822F001025A61FB68202283F83D2078
:103C7C00FB68202283F83E20FB68002283F83C205E
:103C8C0003230FE0FB681B681A68BB681340BA6813
:103C9C009A420CBF01230023DBB21A46FB799A42ED
:103CAC00C3D0002318461037BD4680BD80B485B004
:103CBC0000AFF860B9601346FB80FB68BA689A6283
:103CCC00FB68FA889A85FB68FA88DA85FB6800221B
:103CDC001A64FB68222283F83E20FB68002283F8DA
:103CEC003C20FB681B68DA68FB681B6842F4807236
:103CFC00DA60FB681B685A69FB681B6842F00102BA
:103D0C005A61FB681B68DA68FB681B6842F020028A
:103D1C00DA60002318461437BD4680BC704780B467
:103D2C0083B000AF78607B681B68DA687B681B68BF
:103D3C0022F49072DA607B681B685A697B681B6896
:103D4C0022F001025A617B681B6B012B07D17B6847
:103D5C001B68DA687B681B6822F01002DA607B68EB
:103D6C00202283F83E207B6800221A6300BF0C37A8
:103D7C00BD4680BC704780B584B000AF78607B686E
:103D8C005B6AFB60FB680022DA85FB680022DA8440
:103D9C00F868FFF72DFF00BF1037BD4680BD80B41B
:103DAC0085B000AF78607B6893F83D30DBB2212B97
:103DBC003ED17B689B68B3F5805F14D17B681B692F
:103DCC00002B10D17B681B6AFB60FB681B881A46B2
:103DDC007B681B68C2F308025A607B681B6A9A1CDA
:103DEC007B681A6208E07B681B6A591C7A6811624E
:103DFC001A787B681B685A607B68DB8C9BB2013B32
:103E0C009BB27A681946D184002B0FD17B681B6852
:103E1C00DA687B681B6822F08002DA607B681B68BA
:103E2C00DA687B681B6842F04002DA60002300E02D
:103E3C00022318461437BD4680BC704780B582B04B
:103E4C0000AF78607B681B68DA687B681B6822F0BF
:103E5C004002DA607B68202283F83D207868FFF707
:103E6C00B5FE002318460837BD4680BD80B586B028
:103E7C0000AF78607B6893F83E30DBB2222B40F0C9
:103E8C0099807B689B68B3F5805F17D17B681B6951
:103E9C00002B13D100237B617B689B6A3B617B68A1
:103EAC001B685B689BB2C3F308039AB23B691A8028
:103EBC007B689B6A9A1C7B689A6226E07B689B6A8B
:103ECC007B6100233B617B689B68B3F5805F07D007
:103EDC007B689B68002B0AD17B681B69002B06D181
:103EEC007B681B685B68DAB27B691A7008E07B68D8
:103EFC001B685B68DBB203F07F03DAB27B691A7074
:103F0C007B689B6A5A1C7B689A627B68DB8D9BB2D0
:103F1C00013B9BB27A681946D185002B48D17B684E
:103F2C001B68DA687B681B6822F02002DA607B6809
:103F3C001B68DA687B681B6822F48072DA607B6825
:103F4C001B685A697B681B6822F001025A617B6806
:103F5C00202283F83E207B681B6B012B23D17B68CE
:103F6C0000221A637B681B68DA687B681B6822F086
:103F7C001002DA607B681B681B6803F01003102BBF
:103F8C000AD10023FB607B681B681B68FB607B68A5
:103F9C001B685B68FB60FB687B689B8D19467868C7
:103FAC00FFF72FFE02E07868FFF719FE002302E00E
:103FBC00002300E0022318461837BD4680BD0000E0
:103FCC0080B584B000AF78607B681B681B6923F4F4
:103FDC0040517B68DA687B681B680A431A617B680E
:103FEC009A687B681B691A437B685B691343BB60E7
:103FFC007B681B68DB6823F4B05323F00C037A68EE
:10400C001268B9680B43D3607B681B685B6923F447
:10401C0040717B689A697B681B680A435A617B68AC
:10402C001B682C4A934203D1FEF786FBF86002E032
:10403C00FEF76EFBF860FA6813469B0013449A0077
:10404C001A447B685B689B00B2FBF3F3224AA2FB29
:10405C0003235B091901FA6813469B0013449A0069
:10406C001A447B685B689B00B2FBF3F21A4BA3FB10
:10407C0002035B09642000FB03F3D31A1B013233E8
:10408C00154AA2FB03235B0903F0F0031944FA68F9
:10409C0013469B0013449A001A447B685B689B0090
:1040AC00B2FBF3F20C4BA3FB02035B09642000FB95
:1040BC0003F3D31A1B013233074AA2FB03235B0918
:1040CC0003F00F027B681B680A449A6000BF10372C
:1040DC00BD4680BD003801401F85EB51014B18686F
:1040EC00704700BF5000002070B500260C4D0D4CE1
:1040FC00641BA410A64209D100F09CFC00260A4DBA
:10410C000A4C641BA410A64205D170BD55F8043BA3
:10411C0098470136EEE755F8043B98470136F2E72D
:10412C00C04A0008C04A0008C04A0008C44A000837
:10413C0003460244934200D1704703F8011BF9E790
:10414C000EB46FF0004100B59CB01DAB0290069010
:10415C00079104910848094953F8042B059100680C
:10416C0002A9019300F068F80022029B1A701CB09F
:10417C005DF804EB03B07047500000200802FFFF0D
:10418C002DE9F0478E6882469E420C4690461F46AB
:10419C0038D88A8912F4906F32D0256809690133B6
:1041AC00A5EB010965694B4405EB450505EBD57598
:1041BC006D109D4238BF1D46530531D5294600F080
:1041CC006FFB064650B90C234FF0FF30CAF8003095
:1041DC00A38943F04003A381BDE8F0874A462169D7
:1041EC0000F0CEFAA38923F4906343F08003A381FB
:1041FC0026614E4426603E466561A5EB0905A56027
:10420C00BE4200D93E4632464146206800F0C6FA0E
:10421C00A36800209B1BA360236833442360DBE767
:10422C002A4600F0B1FB06460028E1D15046216930
:10423C0000F0CEFAC7E700002DE9F04F98468B89C5
:10424C0007461B060D4614469DB00ED50B6963B987
:10425C00402100F025FB2860286120B90C233B602D
:10426C004FF0FF30D1E040236B61002309932023F2
:10427C008DF8293030234FF00109CDF80C80DFF890
:10428C00A4818DF82A3023469A4613F8012B0AB1E3
:10429C00252AF9D1BAEB040B0BD05B4622462946F2
:1042AC003846FFF76DFF013000F0AA80099A5A4496
:1042BC0009929AF80030002B00F0A28000234FF0F6
:1042CC00FF32CDE905230AF1010A049307938DF817
:1042DC0053301A935446052214F8011B514800F030
:1042EC0041FA049AD8B9D00644BF20238DF8533034
:1042FC00110744BF2B238DF853309AF800302A2B2A
:10430C0015D0544600204FF00A0C079A214611F89C
:10431C00013B303B092B4ED9B0B1079214E0A0EB16
:10432C00080309FA03F31343A2460493D2E7039B51
:10433C00191D1B680391002BBBBF5B4242F00202AC
:10434C0007930793B8BF049223782E2B0CD1637874
:10435C002A2B35D1039B02341A1D1B680392002BA8
:10436C00B8BF4FF0FF330593DFF8BCA003225046D3
:10437C00217800F0F7F940B14023A0EB0A0003FAD2
:10438C0000F0049B01340343049314F8011B062230
:10439C0026488DF8281000F0E5F9002838D0244B79
:1043AC001BBB039B073323F0070308330393099BC1
:1043BC003344099367E70C4601200CFB0232A5E756
:1043CC0000234FF00A0C194601340593204610F8CF
:1043DC00012B303A092A03D9002BC5D00591C3E72C
:1043EC00044601230CFB0121F0E703AB00932A46A2
:1043FC003846104B04A9AFF30080421C0646D6D1B8
:10440C00AB895B063FF52CAF09981DB0BDE8F08F6A
:10441C0003AB00932A463846064B04A900F07CF8FF
:10442C00EBE700BF8C4A0008924A0008964A000845
:10443C00000000008D4100082DE9F0471646994612
:10444C008A680B6907469342B8BF1346336091F8EC
:10445C0043200C46DDF820800AB101333360236819
:10446C00990642BF336802333360256815F00605A0
:10447C0006D104F1190AE36832689B1AAB4228DCB6
:10448C0094F84320131E226818BF012392062DD4E2
:10449C004946384604F14302C047013020D0236816
:1044AC00E56803F00603042B18BF002532684FF0B3
:1044BC000006A36808BFAD1A226908BF25EAE57596
:1044CC009342C4BF9B1AED181A34B5421AD100207E
:1044DC0008E00123524649463846C047013003D113
:1044EC004FF0FF30BDE8F0870135C4E73020E1180C
:1044FC0081F843005A1C94F845102244023382F888
:10450C004310C5E70123224649463846C0470130CF
:10451C00E6D00136D9E700002DE9FF470F7E914622
:10452C00782F80460C469A460C9D01F1430207D821
:10453C00622F0AD8002F00F0D980582F00F0A480E9
:10454C0004F1420584F842703AE0A7F16303152B9D
:10455C00F6D801A151F823F0BD450008D14500085B
:10456C004D4500084D4500084D4500084D450008D7
:10457C00D14500084D4500084D4500084D45000843
:10458C004D450008DF46000801460008C1460008FA
:10459C004D4500084D450008014700084D450008F1
:1045AC00014600084D4500084D450008C946000865
:1045BC002B681A1D1B682A6004F1420584F84230EE
:1045CC000123A4E020682968060601F104030AD53A
:1045DC000E682B60002E03DA2D23764284F84330CC
:1045EC000A235E4819E00E6810F0400F2B6018BFCC
:1045FC0036B2EFE72B682068191D2960010601D53A
:10460C001E6802E04606FBD51E886F2F0CBF0823E0
:10461C000A235248002184F843106568002DA8BF76
:10462C002168A560A4BF21F0040121600EB9002D02
:10463C004DD01546B6FBF3F103FB1167C75D05F8CA
:10464C00017D3746BB420E46F4D9082B0BD12368AB
:10465C00DE0708D5236961689942DEBF302305F86F
:10466C00013C05F1FF35521B22614B462146404669
:10467C00CDF800A003AAFFF7DFFE01304CD14FF0BC
:10468C00FF3004B0BDE8F087344881F845702968E4
:10469C00236851F8046B29601D0614D5DF0744BF4D
:1046AC0043F0200323601EB9236823F0200323600A
:1046BC001023AFE7236843F02003236078232848B6
:1046CC0084F84530E3E7590648BFB6B2E6E715462D
:1046DC00BBE72B682668181D6169286035061B68C6
:1046EC0001D5196002E07006FBD519800023154630
:1046FC002361BAE72B6800211A1D2A601D686268C5
:10470C00284600F02FF808B1401B606063682361F5
:10471C00002384F84330A8E72A46494640462369DB
:10472C00D0470130ABD023689B0713D4E068039BC0
:10473C009842B8BF1846A4E7012332464946404682
:10474C00D04701309BD00135E36803995B1AAB422B
:10475C00F2DCEBE7002504F11906F5E79D4A0008A9
:10476C00AE4A0008034610B5C9B20244934218463B
:10477C0001D1002003E0047801338C42F6D110BD46
:10478C000A44914200F1FF3300D1704710B511F883
:10479C00014B914203F8014FF9D110BD884210B57D
:1047AC0001EB020402D98442234607D8431EA142DE
:1047BC0008D011F8012B03F8012FF8E70146024449
:1047CC008A4200D110BD13F8014D02F8014DF7E7F4
:1047DC0038B50546002940D051F8043C0C1F002B7D
:1047EC00B8BFE41800F010F91C4A136833B96360C1
:1047FC0014602846BDE8384000F00CB9A34208D933
:10480C00206821188B4201BF19685B680918216068
:10481C00EDE71A465B680BB1A342FAD91168501840
:10482C00A0420BD120680144501883421160E0D1A2
:10483C0018685B68014411605360DAE702D90C23F5
:10484C002B60D6E7206821188B4201BF19685B6882
:10485C000918216063605460CBE738BD1005002057
:10486C0070B50E4E0C463168054611B900F0BCF817
:10487C0030602146284600F0B7F8431C0AD0C41C0F
:10488C0024F00304A04207D0211A284600F0ACF80B
:10489C00013001D14FF0FF34204670BD14050020CB
:1048AC002DE9F041CD1C25F0030508350C2D38BF42
:1048BC000C25002D074601DBA94205D90C23002647
:1048CC003B603046BDE8F0812E4E00F09DF8336819
:1048DC001C4634BB29463846FFF7C2FF431C04462E
:1048EC004DD134682646002E40D1236831463846D7
:1048FC0004EB030800F078F880453AD121680335C1
:10490C006D1A25F0030508350C2D38BF0C253846DB
:10491C002946FFF7A5FF01302BD023682B442360D9
:10492C000EE02268521B1ED40B2A16D96119A34221
:10493C00256018BF5960636808BF316062514B60D5
:10494C00384604F10B0600F065F826F00706231D27
:10495C00F21AB6D09B1BA350B3E76268A3420CBFFC
:10496C0032605A60ECE723466468B2E734467668F6
:10497C00B9E70C2338463B6000F04CF8A1E7256002
:10498C00DEE700BF100500202DE9F04180461446FB
:10499C000E4621B91146BDE8F041FFF781BF2AB997
:1049AC00FFF716FF25462846BDE8F08100F038F8E1
:1049BC008442074602D8B4EB500F12D82146404629
:1049CC00FFF76EFF05460028EDD0BC42224631466B
:1049DC0028BF3A46FFF7D4FE31464046FFF7F8FEB3
:1049EC00E1E73546DFE7000038B50023054D044606
:1049FC0008462B60FCF724F9431C02D12B6803B149
:104A0C00236038BD18050020014800F011B800BF24
:104A1C001C050020014800F00CB800BF1C0500204C
:104A2C0051F8043C181F002BBCBF0B58C018704722
:104A3C0070477047F8B500BFF8BC08BC9E4670477D
:0C4A4C00F8B500BFF8BC08BC9E467047DF
:104A58002A375345473A25642F0D0A0002030405F7
:104A6800060708090A0B0C0D0E0F101000000000B5
:104A78000000000001020304060708090000000006
:104A880001020304232D302B2000686C4C0065665E
:104A98006745464700303132333435363738394187
:104AA800424344454600303132333435363738399D
:084AB8006162636465660000A1
:044AC00031010008B8
:044AC4000D010008D8
:104AC80001000000010000000100000001000000DA
:104AD80001010101010101010101010101010101BE
:104AE800010101010024F40004000000010000009D
:104AF800010000000F0000000A000000050000008F
:104B08003200000001000000100000000100000059
:104B18005400002000000000000000000000000019
:104B2800000000000000000000000000000000007D
:104B3800000000000000000000000000000000006D
:104B4800000000000000000000000000000000005D
:104B5800000000000000000000000000000000004D
:104B6800000000000000000000000000000000003D
:044B78000000000039
:040000050800173D9B
:00000001FF
