:020000040800F2
:1000000000280020410B0008E50A0008EB0A000860
:10001000F10A0008F70A0008FD0A000800000000C5
:10002000000000000000000000000000030B0008BA
:100030000F0B0008000000001B0B0008270B000836
:10004000890B0008890B0008890B0008890B000840
:10005000890B0008890B0008890B0008890B000830
:10006000890B0008890B0008890B0008890B000820
:10007000890B0008890B0008890B0008890B000810
:10008000890B0008890B0008890B0008890B000800
:10009000890B0008890B0008890B0008890B0008F0
:1000A000890B0008890B0008890B0008890B0008E0
:1000B000890B0008890B000800000000890B00086C
:1000C000890B00080000000000000000890B0008F8
:1000D00000000000890B0008890B000800000000E8
:1000E000890B0008890B0008890B0008000000003C
:1000F0000000000000000000000000000000000000
:0C01000000000000000000005FF808F1A3
:10010C0010B5054C237833B9044B13B10448AFF345
:10011C0000800123237010BD0C00002000000000A3
:10012C00E419000808B5034B1BB103490348AFF3AE
:10013C00008008BD0000000010000020E419000839
:10014C0080B582B000AF00F01BFD00F00DFC00F09C
:10015C0047FC01220221534800F0F8FF0022042141
:10016C00504800F0F3FF002208214E4800F0EEFF4B
:10017C00002210214B4800F0E9FF002220214948C1
:10018C0000F0E4FF01224021464800F0DFFF00238D
:10019C007B6000233B607B68042B06DC7B68C3F12F
:1001AC000503184600F080F80FE07B68072B06DC8F
:1001BC007B68C3F10803184600F076F805E07B680D
:1001CC00C3F10A03184600F06FF83B68022B03DCFE
:1001DC00386800F0F5F914E03B68042B05DC3B684B
:1001EC00033B184600F0ECF90BE03B68092B05DCEF
:1001FC003B68053B184600F0E3F902E0002000F0F4
:10020C00DFF97B68052B07D10221264800F0B6FFE9
:10021C000821244800F0B2FF7B68082B07D1082185
:10022C00204800F0ABFF04211E4800F0A7FF7B68BC
:10023C000A2B09D104211B4800F0A0FF0221194808
:10024C0000F09CFF00237B603B68032B07D120212F
:10025C00144800F093FF4021124800F08FFF3B68D8
:10026C00052B07D120210F4800F088FF10210D48E5
:10027C0000F084FF3B680A2B09D11021094800F0DB
:10028C007DFF4021074800F079FF00233B607B682D
:10029C0001337B603B6801333B604FF47A7000F0B4
:1002AC00D1FC78E7000C014080B582B000AF7860DB
:1002BC007B68012B23D101220221C04800F046FFAC
:1002CC0000220421BD4800F041FF00220821BB4858
:1002DC0000F03CFF01221021B84800F037FF01224A
:1002EC002021B64800F032FF01224021B34800F033
:1002FC002DFF01228021B14800F028FF5AE17B68D4
:10030C00022B23D100220221AC4800F01FFF002257
:10031C000421AA4800F01AFF01220821A74800F086
:10032C0015FF00221021A54800F010FF002220210B
:10033C00A24800F00BFF01224021A04800F006FF6C
:10034C00002280219D4800F001FF33E17B68032BE4
:10035C0023D100220221994800F0F8FE002204214A
:10036C00964800F0F3FE00220821944800F0EEFEBF
:10037C0000221021914800F0E9FE012220218F4833
:10038C0000F0E4FE012240218C4800F0DFFE002248
:10039C0080218A4800F0DAFE0CE17B68042B23D123
:1003AC0001220221854800F0D1FE0022042183485D
:1003BC0000F0CCFE00220821804800F0C7FE01228C
:1003CC0010217E4800F0C2FE012220217B4800F063
:1003DC00BDFE00224021794800F0B8FE00228021A9
:1003EC00764800F0B3FEE5E07B68052B23D10022B4
:1003FC000221724800F0AAFE012204216F4800F08D
:10040C00A5FE002208216D4800F0A0FE002210215C
:10041C006A4800F09BFE01222021684800F096FEFD
:10042C0000224021654800F091FE002280216348A3
:10043C0000F08CFEBEE07B68062B23D1002202214B
:10044C005E4800F083FE012204215C4800F07EFE31
:10045C0000220821594800F079FE0022102157484B
:10046C0000F074FE00222021544800F06FFE0022A0
:10047C004021524800F06AFE002280214F4800F0D3
:10048C0065FE97E07B68072B23D1002202214B48A5
:10049C0000F05CFE00220421484800F057FE0022C8
:1004AC000821464800F052FE01221021434800F07A
:1004BC004DFE01222021414800F048FE012240213E
:1004CC003E4800F043FE012280213C4800F03EFEF5
:1004DC0070E07B68082B23D100220221374800F002
:1004EC0035FE00220421354800F030FE00220821A0
:1004FC00324800F02BFE00221021304800F026FE7E
:10050C00002220212D4800F021FE002240212B4802
:10051C0000F01CFE00228021284800F017FE49E064
:10052C007B68092B23D100220221244800F00EFE07
:10053C0000220421214800F009FE002208211F4856
:10054C0000F004FE002210211C4800F0FFFD0122E7
:10055C0020211A4800F0FAFD00224021174800F033
:10056C00F5FD00228021154800F0F0FD22E000226C
:10057C000221124800F0EAFD002204210F4800F08D
:10058C00E5FD002208210D4800F0E0FD00221021BD
:10059C000A4800F0DBFD00222021084800F0D6FDBF
:1005AC0000224021054800F0D1FD012280210348A2
:1005BC0000F0CCFD00BF0837BD4680BD00080140EF
:1005CC0080B582B000AF78607B68012B2AD1012204
:1005DC004FF48071CB4800F0B9FD00224FF400714C
:1005EC00C84800F0B3FD00224FF48061C54800F00C
:1005FC00ADFD01224FF40061C24800F0A7FD0122BD
:10060C004FF48051BF4800F0A1FD01224FF400517E
:10061C00BC4800F09BFD01224FF48041B94800F02A
:10062C0095FD9BE17B68022B2AD100224FF480714F
:10063C00B44800F08BFD00224FF40071B14800F07B
:10064C0085FD01224FF48061AE4800F07FFD002251
:10065C004FF40061AB4800F079FD00224FF480515B
:10066C00A84800F073FD01224FF40051A54800F09A
:10067C006DFD00224FF48041A24800F067FD6DE152
:10068C007B68032B2AD100224FF480719D4800F027
:10069C005DFD00224FF400719A4800F057FD0022D6
:1006AC004FF48061974800F051FD00224FF4006137
:1006BC00944800F04BFD01224FF48051914800F01A
:1006CC0045FD01224FF400518E4800F03FFD002201
:1006DC004FF480418B4800F039FD3FE17B68042BDF
:1006EC002AD101224FF48071864800F02FFD0022A0
:1006FC004FF40071834800F029FD00224FF4806113
:10070C00804800F023FD01224FF400617D4800F089
:10071C001DFD01224FF480517A4800F017FD002294
:10072C004FF40051774800F011FD00224FF4804146
:10073C00744800F00BFD11E17B68052B2AD10022D7
:10074C004FF480716F4800F001FD01224FF40071ED
:10075C006C4800F0FBFC00224FF48061694800F00B
:10076C00F5FC00224FF40061664800F0EFFC01221A
:10077C004FF48051634800F0E9FC00224FF4005123
:10078C00604800F0E3FC00224FF480415D4800F02B
:10079C00DDFCE3E07B68062B2AD100224FF480714C
:1007AC00584800F0D3FC01224FF40071554800F07A
:1007BC00CDFC00224FF48061524800F0C7FC0022AF
:1007CC004FF400614F4800F0C1FC00224FF48051FF
:1007DC004C4800F0BBFC00224FF40051494800F09B
:1007EC00B5FC00224FF48041464800F0AFFCB5E068
:1007FC007B68072B2AD100224FF48071414800F00E
:10080C00A5FC00224FF400713E4800F09FFC002232
:10081C004FF480613B4800F099FC01224FF40061D9
:10082C00384800F093FC01224FF48051354800F019
:10083C008DFC01224FF40051324800F087FC01225C
:10084C004FF480412F4800F081FC87E07B68082B37
:10085C002AD100224FF480712A4800F077FC002244
:10086C004FF40071274800F071FC00224FF48061B6
:10087C00244800F06BFC00224FF40061214800F08A
:10088C0065FC00224FF480511E4800F05FFC0022F2
:10089C004FF400511B4800F059FC00224FF48041EA
:1008AC00184800F053FC59E07B68092B2CD100222E
:1008BC004FF48071134800F049FC00224FF4007192
:1008CC00104800F043FC00224FF480610D4800F00A
:1008DC003DFC00224FF400610A4800F037FC012275
:1008EC004FF48051074800F031FC00224FF40051C6
:1008FC00044800F02BFC00224FF48041014800F02A
:10090C0025FC2BE00008014000224FF480711548B3
:10091C0000F01CFC00224FF40071124800F016FC91
:10092C0000224FF480610F4800F010FC00224FF4BD
:10093C0000610C4800F00AFC00224FF48051094879
:10094C0000F004FC00224FF40051064800F0FEFBBE
:10095C0001224FF48041034800F0F8FB00BF083738
:10096C00BD4680BD0008014080B590B000AF07F1D6
:10097C00180328220021184601F026F83B1D0022FE
:10098C001A605A609A60DA601A610223BB61012313
:10099C00BB621023FB6200237B6307F1180318462C
:1009AC0000F006FC0346002B01D000F06DF80F237D
:1009BC007B600023BB600023FB6000233B610023B2
:1009CC007B613B1D0021184600F074FE0346002B92
:1009DC0001D000F059F800BF4037BD4680BD000083
:1009EC0080B586B000AF07F1080300221A605A6088
:1009FC009A60DA60214B9B69204A43F004039361AF
:100A0C001E4B9B6903F004037B607B681B4B9B694B
:100A1C001A4A43F008039361184B9B6903F00803CF
:100A2C003B603B68002247F6FE71154800F08EFBD8
:100A3C0000227E21134800F089FB47F6FE73BB6051
:100A4C000123FB6000233B6102237B6107F1080358
:100A5C0019460B4800F0FEF97E23BB600123FB60B6
:100A6C0000233B6102237B6107F10803194605480B
:100A7C0000F0F0F900BF1837BD4680BD00100240F1
:100A8C0000080140000C014080B400AF72B600BFFA
:100A9C00FEE7000080B483B000AF0E4B9B690D4A9B
:100AAC0043F0010393610B4B9B6903F001037B60E3
:100ABC007B68084BDB69074A43F08053D361054BD5
:100ACC00DB6903F080533B603B6800BF0C37BD46CD
:100ADC0080BC70470010024080B400AFFEE780B4C9
:100AEC0000AFFEE780B400AFFEE780B400AFFEE7D6
:100AFC0080B400AFFEE780B400AF00BFBD4680BC41
:100B0C00704780B400AF00BFBD4680BC704780B456
:100B1C0000AF00BFBD4680BC704780B500AF00F091
:100B2C0075F800BF80BD80B400AF00BFBD4680BC6F
:100B3C00704700000C480D490D4A002302E0D458C0
:100B4C00C4500433C4188C42F9D30A4A0A4C00230B
:100B5C0001E013600432A242FBD3FFF7E4FF00F084
:100B6C000FFFFFF7EDFA7047000000200C0000208B
:100B7C00241A00080C0000202C000020FEE70000C6
:100B8C0080B500AF084B1B68074A43F01003136095
:100B9C00032000F02BF90F2000F008F8FFF77AFF84
:100BAC000023184680BD00BF0020024080B582B0F3
:100BBC0000AF7860124B1A68124B1B7819464FF431
:100BCC007A73B3FBF1F3B2FBF3F3184600F035F98B
:100BDC000346002B01D001230EE07B680F2B0AD8B3
:100BEC00002279684FF0FF3000F00BF9064A7B6861
:100BFC001360002300E0012318460837BD4680BD72
:100C0C0000000020080000200400002080B400AF89
:100C1C00054B1B781A46054B1B681344034A13609B
:100C2C0000BFBD4680BC7047080000202800002093
:100C3C0080B400AF024B1B681846BD4680BC7047A1
:100C4C002800002080B584B000AF7860FFF7F0FF7B
:100C5C00B8607B68FB60FB68B3F1FF3F05D00A4BC3
:100C6C001B781A46FB681344FB6000BFFFF7E0FFDC
:100C7C000246BB68D31AFA689A42F7D800BF00BF85
:100C8C001037BD4680BD00BF0800002080B485B081
:100C9C0000AF78607B6803F00703FB600C4BDB68EC
:100CAC00BB60BA684FF6FF031340BB60FB681A02C7
:100CBC00BB68134343F0BF6343F40033BB60044A87
:100CCC00BB68D36000BF1437BD4680BC704700BF03
:100CDC0000ED00E080B400AF044BDB681B0A03F0AE
:100CEC0007031846BD4680BC704700BF00ED00E00E
:100CFC0080B483B000AF03463960FB7197F90730BD
:100D0C00002B0ADB3B68DAB20C4997F90730120169
:100D1C00D2B20B4483F800230AE03B68DAB20849EC
:100D2C00FB7903F00F03043B1201D2B20B441A7689
:100D3C0000BF0C37BD4680BC704700BF00E100E02F
:100D4C0000ED00E080B489B000AFF860B9607A6063
:100D5C00FB6803F00703FB61FB69C3F10703042B7A
:100D6C0028BF0423BB61FB690433062B02D9FB6942
:100D7C00033B00E000237B614FF0FF32BB6902FABA
:100D8C0003F3DA43BB681A407B699A404FF0FF319A
:100D9C007B6901FA03F3D9437B680B401343184674
:100DAC002437BD4680BC704780B582B000AF7860F8
:100DBC007B68013BB3F1807F01D301230FE00A4A2A
:100DCC007B68013B53600F214FF0FF30FFF790FF22
:100DDC00054B00229A60044B07221A600023184628
:100DEC000837BD4680BD00BF10E000E080B582B082
:100DFC0000AF78607868FFF749FF00BF0837BD4641
:100E0C0080BD80B586B000AF0346B9607A60FB73D5
:100E1C0000237B61FFF75EFF78617A68B9687869B7
:100E2C00FFF790FF024697F90F3011461846FFF76F
:100E3C005FFF00BF1837BD4680BD80B582B000AFE4
:100E4C0078607868FFF7B0FF034618460837BD4650
:100E5C0080BD000080B48BB000AF78603960002397
:100E6C007B6200233B6261E101227B6A02FA03F39D
:100E7C00FB613B681B68FA691340BB61BA69FB698B
:100E8C009A4240F050813B685B68974A93425ED02F
:100E9C00954A934275D8954A934258D0934A9342B7
:100EAC006FD8934A934252D0914A934269D8914A4F
:100EBC0093424CD08F4A934263D88F4A934246D088
:100ECC008D4A93425DD8122B2AD8122B59D801A2E5
:100EDC0052F823F05B0F0008350F0008470F00088D
:100EEC00890F00088F0F00088F0F00088F0F000864
:100EFC008F0F00088F0F00088F0F00088F0F00084E
:100F0C008F0F00088F0F00088F0F00088F0F00083D
:100F1C008F0F00088F0F00083D0F0008510F0008BD
:100F2C00764A934213D02CE03B68DB683B6229E0A5
:100F3C003B68DB6804333B6224E03B68DB680833C6
:100F4C003B621FE03B68DB680C333B621AE03B689A
:100F5C009B68002B02D104233B6213E03B689B6827
:100F6C00012B05D108233B627B68FA691A6109E001
:100F7C0008233B627B68FA695A6103E000233B62F9
:100F8C0000E000BFBB69FF2B01D87B6801E07B68E8
:100F9C0004337B61BB69FF2B02D87B6A9B0002E0A8
:100FAC007B6A083B9B003B617B691A680F213B699C
:100FBC0001FA03F3DB431A40396A3B6901FA03F384
:100FCC001A437B691A603B685B6803F08053002B03
:100FDC0000F0A9804A4B9B69494A43F00103936195
:100FEC00474B9B6903F00103BB60BB68454A7B6AB6
:100FFC009B08023352F82330FB607B6A03F0030337
:10100C009B000F2202FA03F3DB43FA681340FB60E8
:10101C007B683D4A93420DD07B683C4A934207D093
:10102C007B683B4A934201D1022304E0032302E094
:10103C00012300E000237A6A02F00302920093403D
:10104C00FA681343FB602F497B6A9B080233FA68EA
:10105C0041F823203B685B6803F48033002B06D0F7
:10106C002C4B1A682B49BB6913430B6006E0294BC8
:10107C001A68BB69DB43274913400B603B685B680C
:10108C0003F40033002B06D0224B5A682149BB696C
:10109C0013434B6006E01F4B5A68BB69DB431D4989
:1010AC0013404B603B685B6803F48013002B06D045
:1010BC00184B9A681749BB6913438B6006E0154BB4
:1010CC009A68BB69DB43134913408B603B685B68D0
:1010DC0003F40013002B1FD00E4BDA680D49BB69CB
:1010EC001343CB601FE000BF000032100000311032
:1010FC00000022100000211000001210000011103E
:10110C00001002400000014000080140000C0140AA
:10111C0000100140000401400B4BDA68BB69DB4353
:10112C0009491340CB607B6A01337B623B681A68C8
:10113C007B6A22FA03F3002B7FF496AE00BF00BF4C
:10114C002C37BD4680BC70470004014080B483B08E
:10115C0000AF78600B467B8013467B707B78002B4E
:10116C0003D07A887B681A6103E07B881A047B6859
:10117C001A6100BF0C37BD4680BC704780B485B087
:10118C0000AF78600B467B807B68DB68FB607A88FD
:10119C00FB6813401A04FB68D9437B880B401A4345
:1011AC007B681A6100BF1437BD4680BC70470000D5
:1011BC0080B586B000AF78607B68002B01D101232D
:1011CC0072E27B681B6803F00103002B00F0878040
:1011DC00924B5B6803F00C03042B0CD08F4B5B68B9
:1011EC0003F00C03082B12D18C4B5B6803F4803397
:1011FC00B3F5803F0BD1894B1B6803F40033002BF4
:10120C006CD07B685B68002B68D101234CE27B6857
:10121C005B68B3F5803F06D1804B1B687F4A43F473
:10122C00803313602EE07B685B68002B0CD17B4B0A
:10123C001B687A4A23F480331360784B1B68774A17
:10124C0023F4802313601DE07B685B68B3F5A02F4B
:10125C000CD1724B1B68714A43F4802313606F4BA3
:10126C001B686E4A43F4803313600BE06B4B1B68B6
:10127C006A4A23F480331360684B1B68674A23F473
:10128C00802313607B685B68002B13D0FFF7D0FCC6
:10129C00386108E0FFF7CCFC02463B69D31A642B9B
:1012AC0001D9032300E25D4B1B6803F40033002BD0
:1012BC00F0D014E0FFF7BCFC386108E0FFF7B8FC95
:1012CC0002463B69D31A642B01D90323ECE1534B3F
:1012DC001B6803F40033002BF0D100E000BF7B68E7
:1012EC001B6803F00203002B63D04C4B5B6803F0CC
:1012FC000C03002B0BD0494B5B6803F00C03082B41
:10130C001CD1464B5B6803F48033002B16D1434B46
:10131C001B6803F00203002B05D07B681B69012BB3
:10132C0001D00123C0E13D4B1B6823F0F8027B6820
:10133C005B69DB00394913430B603AE07B681B693E
:10134C00002B20D0364B01221A60FFF771FC38615C
:10135C0008E0FFF76DFC02463B69D31A022B01D95A
:10136C000323A1E12D4B1B6803F00203002BF0D0EB
:10137C002A4B1B6823F0F8027B685B69DB0027496A
:10138C0013430B6015E0264B00221A60FFF750FC4C
:10139C00386108E0FFF74CFC02463B69D31A022B7C
:1013AC0001D9032380E11D4B1B6803F00203002BC2
:1013BC00F0D17B681B6803F00803002B3AD07B68E4
:1013CC009B69002B19D0174B01221A60FFF730FCD8
:1013DC00386108E0FFF72CFC02463B69D31A022B5C
:1013EC0001D9032360E10D4B5B6A03F00203002B70
:1013FC00F0D0012000F0A6FA1CE00A4B00221A6083
:10140C00FFF716FC38610FE0FFF712FC02463B6950
:10141C00D31A022B08D9032346E100BF0010024067
:10142C000000424280044242924B5B6A03F002038A
:10143C00002BE9D17B681B6803F00403002B00F040
:10144C00A6800023FB758B4BDB6903F08053002BCC
:10145C000DD1884BDB69874A43F08053D361854BB0
:10146C00DB6903F08053BB60BB680123FB75824BC7
:10147C001B6803F48073002B18D17F4B1B687E4ACA
:10148C0043F480731360FFF7D3FB386108E0FFF778
:10149C00CFFB02463B69D31A642B01D9032303E12A
:1014AC00754B1B6803F48073002BF0D07B68DB68F2
:1014BC00012B06D16F4B1B6A6E4A43F0010313627A
:1014CC002DE07B68DB68002B0CD16A4B1B6A694AE8
:1014DC0023F001031362674B1B6A664A23F0040373
:1014EC0013621CE07B68DB68052B0CD1614B1B6A1B
:1014FC00604A43F0040313625E4B1B6A5D4A43F07F
:10150C00010313620BE05B4B1B6A5A4A23F0010385
:10151C001362584B1B6A574A23F0040313627B680F
:10152C00DB68002B15D0FFF783FB38610AE0FFF76F
:10153C007FFB02463B69D31A41F28832934201D9B0
:10154C000323B1E04B4B1B6A03F00203002BEED0DC
:10155C0014E0FFF76DFB38610AE0FFF769FB024608
:10156C003B69D31A41F28832934201D903239BE0A1
:10157C00404B1B6A03F00203002BEED1FB7D012BC9
:10158C0005D13C4BDB693B4A23F08053D3617B682C
:10159C00DB69002B00F08780364B5B6803F00C0393
:1015AC00082B61D07B68DB69022B46D1334B0022C0
:1015BC001A60FFF73DFB386108E0FFF739FB024684
:1015CC003B69D31A022B01D903236DE0294B1B680D
:1015DC0003F00073002BF0D17B681B6AB3F5803FDE
:1015EC0008D1244B5B6823F400327B689B6821494B
:1015FC0013434B601F4B5B6823F474127B68196AAE
:10160C007B685B6A0B431B4913434B601B4B0122EA
:10161C001A60FFF70DFB386108E0FFF709FB024683
:10162C003B69D31A022B01D903233DE0114B1B68F4
:10163C0003F00073002BF0D035E0104B00221A6041
:10164C00FFF7F6FA386108E0FFF7F2FA02463B6959
:10165C00D31A022B01D9032326E0064B1B6803F097
:10166C000073002BF0D11EE07B68DB69012B07D1E6
:10167C00012319E00010024000700040600042425B
:10168C000B4B5B68FB60FB6803F480327B681B6A66
:10169C009A4206D1FB6803F470127B685B6A9A422B
:1016AC0001D0012300E0002318461837BD4680BD49
:1016BC000010024080B584B000AF786039607B6860
:1016CC00002B01D10123D0E06A4B1B6803F0070308
:1016DC003A689A4210D9674B1B6823F00702654998
:1016EC003B6813430B60634B1B6803F007033A68BA
:1016FC009A4201D00123B8E07B681B6803F0020317
:10170C00002B20D07B681B6803F00403002B05D052
:10171C00594B5B68584A43F4E06353607B681B6821
:10172C0003F00803002B05D0534B5B68524A43F47B
:10173C0060535360504B5B6823F0F0027B689B68EE
:10174C004D4913434B607B681B6803F00103002B6E
:10175C0040D07B685B68012B07D1474B1B6803F4B7
:10176C000033002B15D101237FE07B685B68022BD3
:10177C0007D1414B1B6803F00073002B09D10123E7
:10178C0073E03D4B1B6803F00203002B01D10123D6
:10179C006BE0394B5B6823F003027B685B6836496E
:1017AC0013434B60FFF744FAF8600AE0FFF740FA86
:1017BC000246FB68D31A41F28832934201D90323C3
:1017CC0053E02D4B5B6803F00C027B685B689B005D
:1017DC009A42EBD1274B1B6803F007033A689A42F5
:1017EC0010D2244B1B6823F0070222493B68134399
:1017FC000B60204B1B6803F007033A689A4201D038
:10180C00012332E07B681B6803F00403002B08D033
:10181C00194B5B6823F4E0627B68DB681649134361
:10182C004B607B681B6803F00803002B09D0124B3C
:10183C005B6823F460527B681B69DB000E49134321
:10184C004B6000F021F802460B4B5B681B0903F060
:10185C000F030A49CB5C22FA03F3094A1360094BC4
:10186C001B681846FFF7A2F9002318461037BD462F
:10187C0080BD00BF00200240001002400C1A00087E
:10188C00000000200400002090B48AB000AF294B67
:10189C003C1D0FCB84E80F0040F201233B8000235A
:1018AC00FB610023BB6100237B6200237B6100236F
:1018BC003B62214B5B68FB61FB6903F00C03042B5F
:1018CC0002D0082B03D02BE01C4B3B622BE0FB69B6
:1018DC009B0C03F00F0328333B4413F8243C7B612F
:1018EC00FB6903F48033002B12D0134B5B685B0C49
:1018FC0003F0010328333B4413F8283CBB617B699C
:10190C000E4A03FB02F2BB69B2FBF3F37B6204E009
:10191C007B690B4A02FB03F37B627B6A3B6202E04E
:10192C00064B3B6200BF3B6A18462837BD4690BC4D
:10193C00704700BFFC1900080010024000127A002A
:10194C0000093D0080B485B000AF78600A4B1B687D
:10195C000A4AA2FB03235B0A7A6802FB03F3FB60CF
:10196C0000BFFB685A1EFA60002BF9D100BF00BF04
:10197C001437BD4680BC704700000020D34D621068
:10198C0070B500260C4D0D4C641BA410A64209D159
:10199C0000F022F800260A4D0A4C641BA410A64243
:1019AC0005D170BD55F8043B98470136EEE755F864
:1019BC00043B98470136F2E71C1A00081C1A000871
:1019CC001C1A0008201A000803460244934200D156
:1019DC00704703F8011BF9E7F8B500BFF8BC08BC69
:1019EC009E467047F8B500BFF8BC08BC9E467047D1
:1019FC0002030405060708090A0B0C0D0E0F101044
:101A0C0000000000000000000102030406070809A2
:041A1C00310100088C
:041A20000D010008AC
:0C1A24000024F40010000000010000008D
:0400000508000B41A3
:00000001FF
