:020000040800F2
:10000000002800202D030008090300080B03000846
:100010000D0300080F030008110300080000000092
:1000200000000000000000000000000013030008B2
:10003000150300080000000017030008190300085A
:1000400075030008750300087503000875030008B0
:1000500075030008750300087503000875030008A0
:100060007503000875030008750300087503000890
:100070007503000875030008750300087503000880
:100080007503000875030008750300087503000870
:100090007503000875030008750300087503000860
:1000A0007503000875030008750300087503000850
:1000B0001D03000875030008000000007503000818
:1000C0007503000800000000000000007503000830
:1000D0000000000075030008750300080000000020
:1000E0007503000875030008750300080000000090
:1000F0000000000000000000000000000000000000
:0C01000000000000000000005FF808F1A3
:10010C0010B5054C237833B9044B13B10448AFF345
:10011C0000800123237010BD0C00002000000000A3
:10012C00680F000808B5034B1BB103490348AFF334
:10013C00008008BD0000000010000020680F0008BF
:10014C0000B591B02422002107A800F0FFFE142274
:10015C00002101A800F0FAFE0223012106931023CE
:10016C0006A8CDE90A1300F08BFA014608B172B665
:10017C00FEE70F23CDE90300CDE90130059001A87E
:10018C0000F054FC08B172B6FEE711B05DF804FB48
:10019C0000B589B000F00EF9FFF7D2FF1022002154
:1001AC000DEB020000F0D2FE354B40F6FF719A6960
:1001BC00344842F004029A619A69002402F0040265
:1001CC000092009A9A69022542F008029A619B6992
:1001DC00002203F008030193019B00F04BFA00226C
:1001EC007F21294800F046FA012640F6FF73254886
:1001FC0004A9CDE90436CDE9064500F065F97F2365
:10020C00214804A9CDE90436CDE9064500F05CF996
:10021C004FF4E0431B4804A9CDE90434069400F0E4
:10022C0053F9102221460DEB020000F08FFE41F62F
:10023C003F734FF08042154DCDE90244C5E90023D0
:10024C0009232846C5E90334AC60AC6100F064FDB9
:10025C0008B172B6FEE74FF48053284604A9049304
:10026C0000F090FD08B172B6FEE7CDE9020002A9DC
:10027C00284600F01BFE08B172B6FEE7FEE700BF91
:10028C000010024000080140000C01402800002032
:10029C000A4B82B09A6942F001029A619A6902F0A3
:1002AC0001020092009ADA6942F08052DA61DB694D
:1002BC0003F080530193019B02B070470010024081
:1002CC00036807B5B3F1804F15D103F50433DA6930
:1002DC001C2042F00102DA610022DB69114603F0B6
:1002EC0001030193019B00F09BF81C2003B05DF807
:1002FC0004EB00F0C7B803B05DF804FBFEE7FEE7C3
:10030C00FEE7FEE7FEE770477047704700F064B801
:10031C00014800F02CBC00BF2800002070470000F2
:10032C000C480D490D4A002302E0D458C450043344
:10033C00C4188C42F9D30A4A0A4C002301E013601A
:10034C000432A242FBD3FFF7E9FF00F0DBFDFFF71D
:10035C001FFF7047000000200C000020AC0F0008AD
:10036C000C00002074000020FEE7000038B50E4B96
:10037C00054618784FF47A73B3FBF0F30B4A106808
:10038C00B0FBF3F000F08CF8044658B90F2D09D8E7
:10039C00024629464FF0FF3000F042F82046044B4D
:1003AC001D6038BD0120FCE7040000200000002087
:1003BC0008000020074A08B51368032043F0100317
:1003CC00136000F01BF80F20FFF7D0FFFFF760FF62
:1003DC00002008BD00200240034A044B11681B7822
:1003EC000B441360704700BF700000200400002015
:1003FC00014B1868704700BF7000002007490302CA
:10040C00CA6803F4E06322F4E0621204120C134392
:10041C0043F0BF6343F40033CB60704700ED00E062
:10042C00164B30B5DC68C4F30224C4F10703251D58
:10043C00042B28BF0423062D4FF0FF3598BF002452
:10044C0005FA03F388BF033C21EA0303A34005FA32
:10045C0004F422EA0402002843EA0203ACBF00F1D0
:10046C006040074A4FEA0313DBB2ABBF00F56140B3
:10047C0000F00F0080F80033135430BD00ED00E0A5
:10048C0014ED00E0002808DB0123420900F01F00F6
:10049C0003FA00F0014B43F82200704700E100E042
:1004AC000138B0F1807F0BD24FF0E023F021054AE8
:1004BC00586182F823100020072298611A61704756
:1004CC000120704700ED00E02DE9F74F00221646A1
:1004DC00614F624BDFF888C1DFF888E10D6835FAAF
:1004EC0006F402D103B0BDE8F08F4FF0010808FA12
:1004FC0006F805EA080438EA050577D14D68032D9E
:10050C0007D8013D022D00F28280DFE805F09297BA
:10051C009D00122D00F095806AD8112D00F08B8073
:10052C00FF2C98BF82464FF00F0988BF00F1040AD8
:10053C004FEA8605DAF8008088BF203D09FA05FBF2
:10054C0028EA0B0802FA05F548EA0505CAF8005036
:10055C00D1F804A01AF0805F48D0BD6926F00308DA
:10056C0045F00105BD61BD6908F1804805F0010544
:10057C00019508F5803806F0030B019D4FEA8B0BB3
:10058C00D8F8085009FA0BF925EA0909364DA842A2
:10059C005ED005F58065A8425CD005F58065A84263
:1005AC000CBF0225032505FA0BF545EA0905C8F829
:1005BC0008501D681AF4803F14BF2543A5431D60E5
:1005CC005D681AF4003F14BF2543A5435D609D6828
:1005DC001AF4801F14BF2543A5439D60DD681AF4EF
:1005EC00001F14BF2C4325EA0404DC60013675E7B8
:1005FC00DFF878904D450AD015D8754507D0A9F588
:10060C0080394D4503D0A9F580194D4588D18A68AC
:10061C00E2B1012A08BFC0F810804FF0080218BFE1
:10062C00C0F814807CE7DFF848904D45EFD0654565
:10063C00ECE7CA6874E7CA68043271E7CA68083222
:10064C006EE7CA680C326BE7002269E7042267E7A1
:10065C000025A8E70125A6E7001002400004014090
:10066C00000032100000121000080140000022109F
:10067C00000031100AB1016170470904FBE700006A
:10068C002DE9F341054638B30368DB0710D42B681A
:10069C009F075ED42B68190700F195802B685A07C9
:1006AC0000F1C180E869002840F02C81002029E08D
:1006BC00904C636803F00C03042B07D0636803F0C1
:1006CC000C03082B0AD16368DE0307D523689C034F
:1006DC00DDD56B68002BDAD1012013E06B68B3F524
:1006EC00803F12D1236843F480332360FFF780FEF0
:1006FC00064623689803CAD4FFF77AFE801B642849
:10070C00F7D9032002B0BDE8F0819BB9236823F42C
:10071C0080332360236823F480232360FFF768FE73
:10072C00064623689903B2D5FFF762FE801B642846
:10073C00F7D9E6E7B3F5A02F236803D143F4802360
:10074C002360CFE723F480332360236823F48023D2
:10075C00CBE7684C636813F00C0F07D0636803F0A9
:10076C000C03082B10D16368DA030DD423689B07A4
:10077C0002D52B69012BAFD123686A6923F0F803EA
:10078C0043EAC203236085E72A695B4B6AB1012205
:10079C001A60FFF72DFE064623689F07ECD4FFF77F
:1007AC0027FE801B0228F7D9ABE71A60FFF720FE63
:1007BC000646236898077FF56DAFFFF719FE801B7F
:1007CC000228F6D99DE7AA694A4E4B4BE2B10122A9
:1007DC00C3F88024FFF70CFE0446736A9B070DD503
:1007EC004FF4FA52454B1B68B3FBF2F3019300BF75
:1007FC00019B5A1E0192002BF9D14FE7FFF7F8FD30
:10080C00001B0228E9D97CE7C3F88024FFF7F0FD30
:10081C000446736A9F077FF541AFFFF7E9FD001BA4
:10082C000228F6D96DE7334CE369D80024D40127AC
:10083C00E36943F08053E361E36903F08053009371
:10084C00009B2F4E3368D90518D5EB68012B26D1A8
:10085C00236A43F001032362FFF7CAFD41F2883893
:10086C000646236A9B073FD5002F3FF41BAFE36975
:10087C0023F08053E36115E70027E2E7336843F484
:10088C0080733360FFF7B4FD80463368DA05DCD43F
:10089C00FFF7AEFDA0EB08006428F6D931E7ABB941
:1008AC00236A41F2883823F001032362236A23F080
:1008BC0004032362FFF79CFD0646236A9807D3D5F1
:1008CC00FFF796FD801B4045F7D91AE7052B236AE5
:1008DC0003D143F004032362BAE723F0010323623C
:1008EC00236A23F00403B6E7FFF782FD801B404523
:1008FC00B7D906E700100240000042420000002079
:10090C00007000402A4C636803F00C03082B3ED0A7
:10091C000022284B02281A662CD1FFF769FD0646E7
:10092C002368990120D42B6AB3F5803F05D1626806
:10093C00A96822F400320A436260696A62680B4358
:10094C0022F474121343012263601A4B1A66FFF7E8
:10095C004FFD054623689A013FF5A8AEFFF748FD09
:10096C00401B0228F6D9CCE6FFF742FD801B02287B
:10097C00D6D9C6E6FFF73CFD054623689B017FF5FB
:10098C0095AEFFF735FD401B0228F6D9B9E60128D4
:10099C003FF4B8AE63682A6A03F4803191427FF465
:1009AC009BAE6A6A03F4701393423FF47FAE93E6F6
:1009BC00001002400000424230B5184B87B002AC28
:1009CC0003F11005224618685968083303C2AB427C
:1009DC001446F7D140F201231149ADF804304B68AD
:1009EC0003F00C02082A17D1C3F3834218326A446D
:1009FC00DB0312F8100C0CD54B680A4AC3F34043C6
:100A0C00504318336B4413F8143CB0FBF3F007B0AD
:100A1C0030BD054B5843FAE70248F8E7900F000841
:100A2C000010024000127A0000093D002DE9F0414F
:100A3C000D46044610B90120BDE8F081444A136804
:100A4C0003F007038B4228D321688E0730D4CA07E2
:100A5C0043D43F4A136803F00703AB4265D82268BE
:100A6C003C4D12F0040F6CD1130706D56B6822694C
:100A7C0023F4605343EAC2036B60FFF79DFF6B687E
:100A8C00354AC3F30313D35CD840344B1860344B52
:100A9C001868FFF76BFC0020CEE7136823F0070300
:100AAC000B431360136803F007038B42C3D1CBE7EE
:100ABC00284B11F0040F1EBF5A6842F4E0625A60D2
:100ACC00080742BF5A6842F460525A605A68A068DC
:100ADC0022F0F00202435A60B9E762681D4E012A07
:100AEC0033681AD113F4003FA5D0736841F28838EB
:100AFC0023F0030313437360FFF77AFC0746736814
:100B0C00626803F00C03B3EB820FA2D0FFF770FC0A
:100B1C00C01B4045F3D903208EE7022A02D113F003
:100B2C00007FE1E713F0020FDEE7136823F0070301
:100B3C002B431360136803F00703AB427FF47BAFC6
:100B4C008DE76B68E16823F4E0630B436B608BE724
:100B5C000020024000100240800F0008000000201E
:100B6C000800002070477047704770477047036853
:100B7C0010B51A69044691070ED5DA6892070BD5A1
:100B8C006FF002021A61012202779B699B0777D0F2
:100B9C00FFF7EAFF0023237723681A69500710D563
:100BAC00DA6851070DD56FF004021A610222227720
:100BBC009B69204613F4407F68D0FFF7D5FF0023D4
:100BCC00237723681A6912070FD5DA6810070CD53A
:100BDC006FF008021A6104222277DB69204699071C
:100BEC005AD0FFF7C1FF0023237723681A69D20676
:100BFC0010D5DA68D0060DD56FF010021A610822F4
:100C0C002277DB69204613F4407F4BD0FFF7ACFF13
:100C1C000023237723681A69D10708D5DA68D2072D
:100C2C0005D56FF0010220461A61FFF79BFF236880
:100C3C001A69100608D5DA68110605D56FF080021E
:100C4C0020461A6100F05DF923681A69520608D52E
:100C5C00DA68500605D56FF0400220461A61FFF79E
:100C6C0085FF23681A69910622D5DA6892061FD58A
:100C7C006FF020022046BDE810401A6100F040B928
:100C8C00FFF771FF2046FFF770FF83E7FFF76BFF5D
:100C9C002046FFF76AFF92E7FFF765FF2046FFF754
:100CAC0064FFA0E7FFF75FFF2046FFF75EFFAFE7AB
:100CBC0010BD0000164A10B59042036805D0B0F183
:100CCC00804F02D0134CA04210D14C6823F070031B
:100CDC00904243EA040305D0B0F1804F02D00D4A94
:100CEC00904203D1CA6823F4407313434A6923F03A
:100CFC008003134303608B68C3620B688362044BED
:100D0C00984204BF0B6903630123436110BD00BF0C
:100D1C00002C01400004004010B5044630B390F89C
:100D2C003D3003F0FF021BB980F83C20FFF7C8FAF6
:100D3C000223206884F83D30211DFFF7BBFF0123FF
:100D4C00002084F8463084F83E3084F83F3084F834
:100D5C00403084F8413084F8423084F8433084F8D1
:100D6C00443084F8453084F83D3010BD0120FCE758
:100D7C0010B584680A4324F47F4442EA03222243D8
:100D8C00826010BD70B590F83C300446012B4FF0DA
:100D9C00020027D0012384F83D00206884F83C3001
:100DAC00836823F47F4323F0770383600B68602B05
:100DBC004DD032D8402B62D015D8202B03D009D877
:100DCC0033F0100208D1826822F07002134343F012
:100DDC00070320E0302BF6D00123002084F83D30AF
:100DEC0084F83C0070BD502BF6D14A68CE68016A7D
:100DFC00056A21F00A0125F00105056283690A43A1
:100E0C0023F0F00343EA061383610262836823F044
:100E1C00700343F057038360DEE7702B0CD0B3F5FF
:100E2C00005FD9D1CB68D1E90121FFF7A1FF22687E
:100E3C00936843F4804308E0CB68D1E90121FFF7C4
:100E4C0097FF2268936843F077039360C4E74D687B
:100E5C00CE68016A21F0100101628269036A22F4F2
:100E6C00704223F0A00343EA051342EA0632826182
:100E7C000362836823F0700343F06703CBE74A688F
:100E8C00CE68016A056A21F00A0125F001050562A8
:100E9C0083690A4323F0F00343EA06138361026279
:100EAC00836823F0700343F04703B4E730B590F840
:100EBC003C200346012A4FF002001ED01A6883F82A
:100ECC003D0054680D6824F070042C439068546005
:100EDC000A4CA24206D0B2F1804F03D0A4F5943450
:100EEC00A24204D1496820F08000014391600122A4
:100EFC00002083F83D2083F83C0030BD002C0140DD
:100F0C007047704770B500260C4D0D4C641BA41037
:100F1C00A64209D100F022F800260A4D0A4C641BA7
:100F2C00A410A64205D170BD55F8043B9847013674
:100F3C00EEE755F8043B98470136F2E7A40F00089A
:100F4C00A40F0008A40F0008A80F000803460244D1
:100F5C00934200D1704703F8011BF9E7F8B500BFC5
:100F6C00F8BC08BC9E467047F8B500BFF8BC08BC7E
:040F7C009E467047D6
:100F80000000000000000000010203040607080939
:100F900002030405060708090A0B0C0D0E0F1010BA
:040FA000000000004D
:040FA400310100080F
:040FA8000D0100082F
:0C0FAC000024F400010000001000000010
:040000050800032DBF
:00000001FF
