:020000040800F2
:1000000000280020C1100008410900084709000825
:100010004D090008530900085909000800000000B4
:100020000000000000000000000000005F09000860
:100030006B09000800000000770900088309000828
:100040000911000809110008091100080911000828
:100050000911000809110008091100080911000818
:100060000911000809110008091100080911000808
:1000700009110008091100080911000809110008F8
:1000800009110008091100080911000809110008E8
:1000900009110008091100080911000809110008D8
:1000A00009110008091100080911000809110008C8
:1000B000910900080911000800000000091100085A
:1000C00009110008000000000000000009110008EC
:1000D00000000000091100080911000800000000DC
:1000E00009110008091100080911000800000000AA
:1000F0000000000000000000000000000000000000
:0C01000000000000000000005FF808F1A3
:10010C0010B5054C237833B9044B13B10448AFF345
:10011C0000800123237010BD180000200000000097
:10012C006427000808B5034B1BB103490348AFF320
:10013C00008008BD000000001C000020642700089F
:10014C0090B583B000AF0023FB7188E0FA79FB799E
:10015C004749895C474AD154FA79FB794649895C0D
:10016C00434AD154FB79002B09D1FC794FF48051CF
:10017C00424801F0B1FA03461A463F4B1A55FB7937
:10018C00012B09D1FC794FF400513C4801F0A4FA41
:10019C0003461A46384B1A55FB79022B09D1FC79C8
:1001AC004FF48041354801F097FA03461A46324B1A
:1001BC001A55FB792F4AD25CFB792D49CB5C9A42BC
:1001CC004AD1FB792A4AD25CFB792B49CB5C9A4207
:1001DC0042D1FB792A4AD25CFB792649CB5C9A4204
:1001EC0022D0FA79FB792349895C254AD154FB79D1
:1001FC00234AD35C002B09D1FB79224A0021D1542C
:10020C00FB79214A642122F8131025E0FB791D4A61
:10021C000121D154FB791D4A0021D154FB791C4A90
:10022C00012142F8231017E0FB79154AD35C002B0F
:10023C0012D1FB79144A32F81320013A91B2124AC6
:10024C0022F81310FB79104A32F81330002B03D12B
:10025C00FB790E4A0121D154FB790133FB71FB79F7
:10026C00022B7FF673AF00BF00BF0C37BD4690BDAD
:10027C0040000020440000203C0000200008014009
:10028C00480000204C0000203400002050000020CA
:10029C000000002080B483B000AF0346FB71FB79F3
:1002AC00022B01D9002312E0FB790B4AD35C002B03
:1002BC000CD1FB79094A52F82330012B06D1FB797A
:1002CC00064A002142F82310012300E000231846BF
:1002DC000C37BD4680BC70474C000020000000204D
:1002EC0080B500AF00F00CFF00F086F800F00CF9C0
:1002FC0000F0BEF8344801F06FFE01228021334833
:10030C0001F001FA01224FF48071304801F0FBF941
:10031C0000224FF400712D4801F0F5F901224FF441
:10032C0080612A4801F0EFF901224FF4006127485F
:10033C0001F0E9F901228021254801F0E4F90122BC
:10034C004FF48071224801F0DEF901224FF4007164
:10035C001F4801F0D8F900F04BF9012200211D488B
:10036C0000F0BAF9012201211B4800F0B5F9012275
:10037C0002211A4800F0B0F932220221184800F08C
:10038C00ABF996220321174800F0A6F9C8220521E3
:10039C00154800F0A1F964220721144800F09CF9DB
:1003AC0000224FF4FA71124800F096F964220921E8
:1003BC00104800F091F9002240F2DC510C4800F09A
:1003CC008BF900F0EDF9FCE7540000200008014027
:1003DC00000C01404D0100087D1000089D10000824
:1003EC00B1090008E1090008C9090008F909000869
:1003FC002D0A0008550D000880B590B000AF07F12C
:10040C00180328220021184602F09EF93B1D0022F9
:10041C001A605A609A60DA601A610223BB61012388
:10042C00BB621023FB6200237B6307F118031846A1
:10043C0001F09AF90346002B01D000F0D3F80F23FA
:10044C007B600023BB600023FB6000233B61002327
:10045C007B613B1D0021184601F008FC0346002B74
:10046C0001D000F0BFF800BF4037BD4680BD000092
:10047C0080B586B000AF07F1080300221A605A60FD
:10048C009A60DA603B4600221A605A601D4B4FF0AE
:10049C0080421A601B4B41F63F725A60194B002286
:1004AC009A60184B0922DA60164B00221A61154B20
:1004BC0000229A61134801F03FFD0346002B01D046
:1004CC0000F090F84FF48053BB6007F10803194615
:1004DC000C4801F0D5FE0346002B01D000F082F849
:1004EC0000233B6000237B603B461946054802F025
:1004FC009DF80346002B01D000F074F800BF1837AC
:10050C00BD4680BD5400002080B586B000AF07F119
:10051C00080300221A605A609A60DA60294B9B69C2
:10052C00284A43F004039361264B9B6903F00403B0
:10053C007B607B68234B9B69224A43F008039361E1
:10054C00204B9B6903F008033B603B68002240F69C
:10055C00FF711D4801F0D7F8002240F2FF311B4813
:10056C0001F0D1F840F6FF73BB600123FB60002360
:10057C003B6102237B6107F108031946124800F026
:10058C002FFF40F2FF33BB600123FB6000233B6174
:10059C0002237B6107F1080319460C4800F020FF89
:1005AC004FF4E043BB600023FB6000233B6107F189
:1005BC0008031946044800F013FF00BF1837BD4666
:1005CC0080BD00BF0010024000080140000C01403B
:1005DC0080B582B000AF786000F024F800BF083717
:1005EC00BD4680BD80B400AF72B600BFFEE7000010
:1005FC0080B582B000AF0023FB7106E0FB79184692
:10060C0000F00EF9FB790133FB71FB79272BF5D93F
:10061C00034B08221A6000BF0837BD4680BD00BFDF
:10062C00BC03002080B483B000AF0023FB7147E013
:10063C00FA79284913469B0013449B000B441B6812
:10064C00002B3AD0FA79234913469B0013449B00A4
:10065C000B4404331B68002B1CD1FA791D4913463B
:10066C009B0013449B000B440C3301221A70F97944
:10067C00FA7918480B469B000B449B000344083343
:10068C001968144813469B0013449B00034404331D
:10069C00196012E0FA790F4913469B0013449B0032
:1006AC000B4404331B68FA79591E0A4813469B0005
:1006BC0013449B00034404331960FB790133FB7131
:1006CC00FB79272BB4D900BF00BF0C37BD4680BCCB
:1006DC00704700BF9C00002080B487B000AFF8606A
:1006EC00B9607A600023FB7502E0FB7D0133FB757A
:1006FC00FA7D284913469B0013449B000B441B684E
:10070C00002B02D0FB7D272BEFD9FB7D282B04D1AE
:10071C00214B00221A60282336E0FA7DF9681D4827
:10072C0013469B0013449B0003441960FA7DB9687F
:10073C00184813469B0013449B0003440433196070
:10074C00FA7D7968134813469B0013449B000344BD
:10075C0008331960FA7D0F4913469B0013449B0024
:10076C000B440C3300221A700C4B1B685A1C0B499F
:10077C000A60FA7D1846074913469B0013449B00F8
:10078C000B4410331860FB7D18461C37BD4680BCEB
:10079C00704700BF9C000020BC030020C003002059
:1007AC0080B582B000AF0023FB712FE0FA791B49B2
:1007BC0013469B0013449B000B440C331B78012BFA
:1007CC0021D1FA79154913469B0013449B000B4425
:1007DC001B689847FA79114913469B0013449B00F8
:1007EC000B440C3300221A70FA790C4913469B0007
:1007FC0013449B000B4408331B68002B03D1FB797B
:10080C00184600F00DF8FB790133FB71FB79272BAF
:10081C00CCD900BF00BF0837BD4680BD9C0000206E
:10082C0080B483B000AF78601D497A6813469B0092
:10083C0013449B000B441B68002B04D1194B07225B
:10084C001A60002327E016497A6813469B0013446C
:10085C009B000B4400221A6011497A6813469B00D6
:10086C0013449B000B44043300221A600C497A6831
:10087C0013469B0013449B000B44083300221A6060
:10088C0007497A6813469B0013449B000B440C33B6
:10089C0000221A70012318460C37BD4680BC7047E5
:1008AC009C000020BC03002080B483B000AF0E4B32
:1008BC009B690D4A43F0010393610B4B9B6903F059
:1008CC0001037B607B68084BDB69074A43F080536C
:1008DC00D361054BDB6903F080533B603B6800BF81
:1008EC000C37BD4680BC70470010024080B584B008
:1008FC0000AF78607B681B68B3F1804F13D10C4B51
:10090C00DB690B4A43F00103D361094BDB6903F04C
:10091C000103FB60FB68002200211C2000F029FD74
:10092C001C2000F042FD00BF1037BD4680BD00BF4B
:10093C000010024080B400AFFEE780B400AFFEE7C9
:10094C0080B400AFFEE780B400AFFEE780B400AF28
:10095C00FEE780B400AF00BFBD4680BC704780B4DA
:10096C0000AF00BFBD4680BC704780B400AF00BF75
:10097C00BD4680BC704780B500AF00F007FC00BFDF
:10098C0080BD000080B500AF024801F071FB00BFD4
:10099C0080BD00BF5400002080B400AF00BFBD4636
:1009AC0080BC704780B500AF4FF40071024800F076
:1009BC00C2FE00BF80BD00BF0008014080B500AF83
:1009CC004FF48061024800F0B6FE00BF80BD00BF4E
:1009DC000008014080B500AF4FF40061024800F000
:1009EC00AAFE00BF80BD00BF0008014080B400AF6C
:1009FC00094B1B68591C094B83FB01239A10CB171D
:100A0C00D21A13469B0013445B00CA1A024B1A609D
:100A1C0000BFBD4680BC7047C40300206766666695
:100A2C0080B582B000AFC64B1B687B607B68012B26
:100A3C0023D101220121C34800F065FE00220221CE
:100A4C00C04800F060FE00220421BE4800F05BFEAE
:100A5C0001220821BB4800F056FE01221021B948A2
:100A6C0000F051FE01222021B64800F04CFE01227C
:100A7C004021B44800F047FE5DE17B68022B23D196
:100A8C0000220121AF4800F03EFE00220221AD48B9
:100A9C0000F039FE01220421AA4800F034FE0022A5
:100AAC000821A84800F02FFE00221021A54800F0D4
:100ABC002AFE01222021A34800F025FE002240211D
:100ACC00A04800F020FE36E17B68032B23D10022E6
:100ADC0001219C4800F017FE00220221994800F0E9
:100AEC0012FE00220421974800F00DFE002208217E
:100AFC00944800F008FE01221021924800F003FEF9
:100B0C00012220218F4800F0FEFD002240218D485B
:100B1C0000F0F9FD0FE17B68042B23D101220121A8
:100B2C00884800F0F0FD00220221864800F0EBFD21
:100B3C0000220421834800F0E6FD012208218148AF
:100B4C0000F0E1FD012210217E4800F0DCFD0022C6
:100B5C0020217C4800F0D7FD00224021794800F08C
:100B6C00D2FDE8E07B68052B23D1002201217548DA
:100B7C0000F0C9FD01220221724800F0C4FD0022E0
:100B8C000421704800F0BFFD002208216D4800F0E0
:100B9C00BAFD012210216B4800F0B5FD0022202186
:100BAC00684800F0B0FD00224021664800F0ABFD23
:100BBC00C1E07B68062B23D100220121614800F0A3
:100BCC00A2FD012202215F4800F09DFD00220421BC
:100BDC005C4800F098FD002208215A4800F093FD73
:100BEC0000221021574800F08EFD0022202155488C
:100BFC0000F089FD00224021524800F084FD9AE06B
:100C0C007B68072B23D1002201214E4800F07BFD8D
:100C1C00002202214B4800F076FD002204214948B5
:100C2C0000F071FD01220821464800F06CFD012204
:100C3C001021444800F067FD01222021414800F0BA
:100C4C0062FD012240213F4800F05DFD73E07B68AE
:100C5C00082B23D1002201213A4800F054FD002238
:100C6C000221384800F04FFD00220421354800F0E5
:100C7C004AFD00220821334800F045FD00221021D6
:100C8C00304800F040FD002220212E4800F03BFDB2
:100C9C00002240212B4800F036FD4CE07B68092BEC
:100CAC0023D100220121274800F02DFD0022022132
:100CBC00244800F028FD00220421224800F023FDE6
:100CCC00002208211F4800F01EFD012210211D48A2
:100CDC0000F019FD002220211A4800F014FD00221A
:100CEC004021184800F00FFD25E07B68002B22D135
:100CFC0000220121134800F006FD002202211148B8
:100D0C0000F001FD002204210E4800F0FCFC002242
:100D1C0008210C4800F0F7FC00221021094800F0D3
:100D2C00F2FC00222021074800F0EDFC01224021BA
:100D3C00044800F0E8FC00BF0837BD4680BD00BF8A
:100D4C00C4030020000C014080B582B000AFC64B3C
:100D5C001B687B607B68012B23D101220121C348D6
:100D6C0000F0D1FC00220221C04800F0CCFC002293
:100D7C000421BE4800F0C7FC01220821BB4800F04A
:100D8C00C2FC01221021B94800F0BDFC0122202137
:100D9C00B64800F0B8FC01224021B44800F0B3FC86
:100DAC005DE17B68022B23D100220121AF4800F0CA
:100DBC00AAFC00220221AD4800F0A5FC012204216E
:100DCC00AA4800F0A0FC00220821A84800F09BFCD7
:100DDC0000221021A54800F096FC01222021A348F6
:100DEC0000F091FC00224021A04800F08CFC36E180
:100DFC007B68032B23D1002201219C4800F083FC4B
:100E0C0000220221994800F07EFC00220421974820
:100E1C0000F079FC00220821944800F074FC0122B7
:100E2C001021924800F06FFC012220218F4800F025
:100E3C006AFC002240218D4800F065FC0FE17B68C4
:100E4C00042B23D101220121884800F05CFC0022F4
:100E5C000221864800F057FC00220421834800F050
:100E6C0052FC01220821814800F04DFC0122102186
:100E7C007E4800F048FC002220217C4800F043FC16
:100E8C0000224021794800F03EFCE8E07B68052B0D
:100E9C0023D100220121754800F035FC01220221EA
:100EAC00724800F030FC00220421704800F02BFC4A
:100EBC00002208216D4800F026FC012210216B480D
:100ECC0000F021FC00222021684800F01CFC0022CC
:100EDC004021664800F017FCC1E07B68062B23D14B
:100EEC0000220121614800F00EFC012202215F4822
:100EFC0000F009FC002204215C4800F004FC0022F4
:100F0C0008215A4800F0FFFB00221021574800F03E
:100F1C00FAFB00222021554800F0F5FB002240216D
:100F2C00524800F0F0FB9AE07B68072B23D100229B
:100F3C0001214E4800F0E7FB002202214B4800F053
:100F4C00E2FB00220421494800F0DDFB01220821CC
:100F5C00464800F0D8FB01221021444800F0D3FB96
:100F6C0001222021414800F0CEFB012240213F48C4
:100F7C0000F0C9FB73E07B68082B23D10022012110
:100F8C003A4800F0C0FB00220221384800F0BBFBBD
:100F9C0000220421354800F0B6FB0022082133481A
:100FAC0000F0B1FB00221021304800F0ACFB002215
:100FBC0020212E4800F0A7FB002240212B4800F0F6
:100FCC00A2FB4CE07B68092B23D10022012127488E
:100FDC0000F099FB00220221244800F094FB00222F
:100FEC000421224800F08FFB002208211F4800F04A
:100FFC008AFB012210211D4800F085FB00222021D4
:10100C001A4800F080FB00224021184800F07BFBBE
:10101C0025E07B68002B22D100220121134800F02F
:10102C0072FB00220221114800F06DFB002204210A
:10103C000E4800F068FB002208210C4800F063FB0E
:10104C0000221021094800F05EFB002220210748F5
:10105C0000F059FB01224021044800F054FB00BF72
:10106C000837BD4680BD00BFC40300200008014006
:10107C0080B500AF0020FFF70DF90346002B03D01D
:10108C008021024800F057FB00BF80BD00080140E2
:10109C0080B500AF0120FFF7FDF80346002B04D00C
:1010AC004FF48071024800F046FB00BF80BD00BFCA
:1010BC00000801400C480D490D4A002302E0D458A9
:1010CC00C4500433C4188C42F9D30A4A0A4C002386
:1010DC0001E013600432A242FBD3FFF75DFC01F088
:1010EC000FFBFFF7FDF870470000002018000020F0
:1010FC00A427000818000020CC030020FEE7000005
:10110C0080B500AF084B1B68074A43F0100313600F
:10111C00032000F023F90F2000F008F8FFF7C4FBC0
:10112C000023184680BD00BF0020024080B582B06D
:10113C0000AF7860124B1A68124B1B7819464FF4AB
:10114C007A73B3FBF1F3B2FBF3F3184600F03BF9FF
:10115C000346002B01D001230EE07B680F2B0AD82D
:10116C00002279684FF0FF3000F003F9064A7B68E3
:10117C001360002300E0012318460837BD4680BDEC
:10118C000C000020140000201000002080B400AFE0
:10119C00054B1B781A46054B1B681344034A136016
:1011AC0000BFBD4680BC704714000020C80300205F
:1011BC0080B400AF024B1B681846BD4680BC70471C
:1011CC00C803002080B485B000AF78607B6803F062
:1011DC000703FB600C4BDB68BB60BA684FF6FF0380
:1011EC001340BB60FB681A02BB68134343F0BF6338
:1011FC0043F40033BB60044ABB68D36000BF1437B0
:10120C00BD4680BC704700BF00ED00E080B400AF6D
:10121C00044BDB681B0A03F007031846BD4680BC71
:10122C00704700BF00ED00E080B483B000AF034610
:10123C00FB7197F90730002B0BDBFB7903F01F02D6
:10124C00064997F907305B09012000FA02F241F8D0
:10125C00232000BF0C37BD4680BC704700E100E086
:10126C0080B483B000AF03463960FB7197F9073047
:10127C00002B0ADB3B68DAB20C4997F907301201F4
:10128C00D2B20B4483F800230AE03B68DAB2084977
:10129C00FB7903F00F03043B1201D2B20B441A7614
:1012AC0000BF0C37BD4680BC704700BF00E100E0BA
:1012BC0000ED00E080B489B000AFF860B9607A60EE
:1012CC00FB6803F00703FB61FB69C3F10703042B05
:1012DC0028BF0423BB61FB690433062B02D9FB69CD
:1012EC00033B00E000237B614FF0FF32BB6902FA45
:1012FC0003F3DA43BB681A407B699A404FF0FF3125
:10130C007B6901FA03F3D9437B680B4013431846FE
:10131C002437BD4680BC704780B582B000AF786082
:10132C007B68013BB3F1807F01D301230FE00A4AB4
:10133C007B68013B53600F214FF0FF30FFF790FFAC
:10134C00054B00229A60044B07221A6000231846B2
:10135C000837BD4680BD00BF10E000E080B582B00C
:10136C0000AF78607868FFF72DFF00BF0837BD46E7
:10137C0080BD80B586B000AF0346B9607A60FB7360
:10138C0000237B61FFF742FF78617A68B96878695E
:10139C00FFF790FF024697F90F3011461846FFF7FA
:1013AC005FFF00BF1837BD4680BD80B582B000AF6F
:1013BC000346FB7197F907301846FFF735FF00BF5E
:1013CC000837BD4680BD80B582B000AF78607868C4
:1013DC00FFF7A2FF034618460837BD4680BD000044
:1013EC0080B48BB000AF7860396000237B6200233F
:1013FC003B6261E101227B6A02FA03F3FB613B6809
:10140C001B68FA691340BB61BA69FB699A4240F0E8
:10141C0050813B685B68974A93425ED0954A9342F1
:10142C0075D8954A934258D0934A93426FD8934AB1
:10143C00934252D0914A934269D8914A93424CD0EC
:10144C008F4A934263D88F4A934246D08D4A934237
:10145C005DD8122B2AD8122B59D801A252F823F09E
:10146C00E7140008C1140008D3140008151500086F
:10147C001B1500081B1500081B1500081B15000880
:10148C001B1500081B1500081B1500081B15000870
:10149C001B1500081B1500081B1500081B15000860
:1014AC001B150008C9140008DD140008764A934285
:1014BC0013D02CE03B68DB683B6229E03B68DB68BF
:1014CC0004333B6224E03B68DB6808333B621FE07B
:1014DC003B68DB680C333B621AE03B689B68002B73
:1014EC0002D104233B6213E03B689B68012B05D1BE
:1014FC0008233B627B68FA691A6109E008233B62A6
:10150C007B68FA695A6103E000233B6200E000BF8C
:10151C00BB69FF2B01D87B6801E07B6804337B61DE
:10152C00BB69FF2B02D87B6A9B0002E07B6A083BFD
:10153C009B003B617B691A680F213B6901FA03F33D
:10154C00DB431A40396A3B6901FA03F31A437B699E
:10155C001A603B685B6803F08053002B00F0A98095
:10156C004A4B9B69494A43F001039361474B9B6982
:10157C0003F00103BB60BB68454A7B6A9B080233DE
:10158C0052F82330FB607B6A03F003039B000F22AD
:10159C0002FA03F3DB43FA681340FB607B683D4AB5
:1015AC0093420DD07B683C4A934207D07B683B4A00
:1015BC00934201D1022304E0032302E0012300E063
:1015CC0000237A6A02F0030292009340FA681343F4
:1015DC00FB602F497B6A9B080233FA6841F8232091
:1015EC003B685B6803F48033002B06D02C4B1A68E5
:1015FC002B49BB6913430B6006E0294B1A68BB6986
:10160C00DB43274913400B603B685B6803F40033F2
:10161C00002B06D0224B5A682149BB6913434B60FF
:10162C0006E01F4B5A68BB69DB431D4913404B60F6
:10163C003B685B6803F48013002B06D0184B9A6848
:10164C001749BB6913438B6006E0154B9A68BB695D
:10165C00DB43134913408B603B685B6803F4001356
:10166C00002B1FD00E4BDA680D49BB691343CB60BE
:10167C001FE000BF000032100000311000002210EB
:10168C000000211000001210000011100010024088
:10169C000000014000080140000C01400010014016
:1016AC00000401400B4BDA68BB69DB43094913406A
:1016BC00CB607B6A01337B623B681A687B6A22FAD7
:1016CC0003F3002B7FF496AE00BF00BF2C37BD4652
:1016DC0080BC70470004014080B485B000AF7860D6
:1016EC000B467B807B689A687B881340002B02D06A
:1016FC000123FB7301E00023FB73FB7B18461437BB
:10170C00BD4680BC704780B483B000AF78600B4698
:10171C007B8013467B707B78002B03D07A887B68A8
:10172C001A6103E07B881A047B681A6100BF0C37CE
:10173C00BD4680BC704780B485B000AF78600B4666
:10174C007B807B68DB68FB607A88FB6813401A043B
:10175C00FB68D9437B880B401A437B681A6100BF36
:10176C001437BD4680BC704780B586B000AF78603A
:10177C007B68002B01D1012372E27B681B6803F0AC
:10178C000103002B00F08780924B5B6803F00C0385
:10179C00042B0CD08F4B5B6803F00C03082B12D17D
:1017AC008C4B5B6803F48033B3F5803F0BD1894BD2
:1017BC001B6803F40033002B6CD07B685B68002B38
:1017CC0068D101234CE27B685B68B3F5803F06D19E
:1017DC00804B1B687F4A43F4803313602EE07B6898
:1017EC005B68002B0CD17B4B1B687A4A23F480334B
:1017FC001360784B1B68774A23F4802313601DE039
:10180C007B685B68B3F5A02F0CD1724B1B68714AD7
:10181C0043F4802313606F4B1B686E4A43F4803390
:10182C0013600BE06B4B1B686A4A23F48033136024
:10183C00684B1B68674A23F4802313607B685B68E2
:10184C00002B13D0FFF7B4FC386108E0FFF7B0FCB5
:10185C0002463B69D31A642B01D9032300E25D4B8A
:10186C001B6803F40033002BF0D014E0FFF7A0FC4E
:10187C00386108E0FFF79CFC02463B69D31A642BE5
:10188C0001D90323ECE1534B1B6803F40033002B09
:10189C00F0D100E000BF7B681B6803F00203002B53
:1018AC0063D04C4B5B6803F00C03002B0BD0494B03
:1018BC005B6803F00C03082B1CD1464B5B6803F4EC
:1018CC008033002B16D1434B1B6803F00203002B13
:1018DC0005D07B681B69012B01D00123C0E13D4B76
:1018EC001B6823F0F8027B685B69DB003949134302
:1018FC000B603AE07B681B69002B20D0364B012231
:10190C001A60FFF755FC386108E0FFF751FC0246FE
:10191C003B69D31A022B01D90323A1E12D4B1B6880
:10192C0003F00203002BF0D02A4B1B6823F0F802C3
:10193C007B685B69DB00274913430B6015E0264B82
:10194C0000221A60FFF734FC386108E0FFF730FC26
:10195C0002463B69D31A022B01D9032380E11D4BAC
:10196C001B6803F00203002BF0D17B681B6803F0AB
:10197C000803002B3AD07B689B69002B19D0174BBE
:10198C0001221A60FFF714FC386108E0FFF710FC25
:10199C0002463B69D31A022B01D9032360E10D4B9C
:1019AC005B6A03F00203002BF0D0012000F0A6FAD2
:1019BC001CE00A4B00221A60FFF7FAFB38610FE0BB
:1019CC00FFF7F6FB02463B69D31A022B08D9032317
:1019DC0046E100BF00100240000042428004424237
:1019EC00924B5B6A03F00203002BE9D17B681B6806
:1019FC0003F00403002B00F0A6800023FB758B4B37
:101A0C00DB6903F08053002B0DD1884BDB69874ACF
:101A1C0043F08053D361854BDB6903F08053BB608B
:101A2C00BB680123FB75824B1B6803F48073002B8E
:101A3C0018D17F4B1B687E4A43F480731360FFF709
:101A4C00B7FB386108E0FFF7B3FB02463B69D31ADA
:101A5C00642B01D9032303E1754B1B6803F48073DA
:101A6C00002BF0D07B68DB68012B06D16F4B1B6A17
:101A7C006E4A43F0010313622DE07B68DB68002B98
:101A8C000CD16A4B1B6A694A23F001031362674B42
:101A9C001B6A664A23F0040313621CE07B68DB6854
:101AAC00052B0CD1614B1B6A604A43F00403136293
:101ABC005E4B1B6A5D4A43F0010313620BE05B4B08
:101ACC001B6A5A4A23F001031362584B1B6A574A8C
:101ADC0023F0040313627B68DB68002B15D0FFF73F
:101AEC0067FB38610AE0FFF763FB02463B69D31AD8
:101AFC0041F28832934201D90323B1E04B4B1B6A6C
:101B0C0003F00203002BEED014E0FFF751FB386119
:101B1C000AE0FFF74DFB02463B69D31A41F28832CB
:101B2C00934201D903239BE0404B1B6A03F0020351
:101B3C00002BEED1FB7D012B05D13C4BDB693B4AE5
:101B4C0023F08053D3617B68DB69002B00F0878026
:101B5C00364B5B6803F00C03082B61D07B68DB69A8
:101B6C00022B46D1334B00221A60FFF721FB386160
:101B7C0008E0FFF71DFB02463B69D31A022B01D983
:101B8C0003236DE0294B1B6803F00073002BF0D18D
:101B9C007B681B6AB3F5803F08D1244B5B6823F448
:101BAC0000327B689B68214913434B601F4B5B6879
:101BBC0023F474127B68196A7B685B6A0B431B49BC
:101BCC0013434B601B4B01221A60FFF7F1FA38618B
:101BDC0008E0FFF7EDFA02463B69D31A022B01D954
:101BEC0003233DE0114B1B6803F00073002BF0D076
:101BFC0035E0104B00221A60FFF7DAFA386108E082
:101C0C00FFF7D6FA02463B69D31A022B01D90323FC
:101C1C0026E0064B1B6803F00073002BF0D11EE08E
:101C2C007B68DB69012B07D1012319E0001002400E
:101C3C0000700040600042420B4B5B68FB60FB682D
:101C4C0003F480327B681B6A9A4206D1FB6803F46A
:101C5C0070127B685B6A9A4201D0012300E000237A
:101C6C0018461837BD4680BD0010024080B584B0C0
:101C7C0000AF786039607B68002B01D10123D0E084
:101C8C006A4B1B6803F007033A689A4210D9674BFA
:101C9C001B6823F0070265493B6813430B60634BD9
:101CAC001B6803F007033A689A4201D00123B8E09D
:101CBC007B681B6803F00203002B20D07B681B6839
:101CCC0003F00403002B05D0594B5B68584A43F4CE
:101CDC00E06353607B681B6803F00803002B05D09E
:101CEC00534B5B68524A43F460535360504B5B68F0
:101CFC0023F0F0027B689B684D4913434B607B6873
:101D0C001B6803F00103002B40D07B685B68012B40
:101D1C0007D1474B1B6803F40033002B15D101236B
:101D2C007FE07B685B68022B07D1414B1B6803F09B
:101D3C000073002B09D1012373E03D4B1B6803F0AA
:101D4C000203002B01D101236BE0394B5B6823F0BC
:101D5C0003027B685B68364913434B60FFF728FA34
:101D6C00F8600AE0FFF724FA0246FB68D31A41F246
:101D7C008832934201D9032353E02D4B5B6803F067
:101D8C000C027B685B689B009A42EBD1274B1B686B
:101D9C0003F007033A689A4210D2244B1B6823F0D5
:101DAC00070222493B6813430B60204B1B6803F06E
:101DBC0007033A689A4201D0012332E07B681B6822
:101DCC0003F00403002B08D0194B5B6823F4E0628A
:101DDC007B68DB68164913434B607B681B6803F018
:101DEC000803002B09D0124B5B6823F460527B680C
:101DFC001B69DB000E4913434B6000F021F80246CF
:101E0C000B4B5B681B0903F00F030A49CB5C22FAEE
:101E1C0003F3094A1360094B1B681846FFF786F950
:101E2C00002318461037BD4680BD00BF002002407D
:101E3C00001002408C2700080C000020100000202D
:101E4C0090B48AB000AF294B3C1D0FCB84E80F0037
:101E5C0040F201233B800023FB610023BB61002384
:101E6C007B6200237B6100233B62214B5B68FB613F
:101E7C00FB6903F00C03042B02D0082B03D02BE0DE
:101E8C001C4B3B622BE0FB699B0C03F00F032833CC
:101E9C003B4413F8243C7B61FB6903F48033002B37
:101EAC0012D0134B5B685B0C03F0010328333B44EB
:101EBC0013F8283CBB617B690E4A03FB02F2BB6939
:101ECC00B2FBF3F37B6204E07B690B4A02FB03F386
:101EDC007B627B6A3B6202E0064B3B6200BF3B6A63
:101EEC0018462837BD4690BC704700BF7C270008B9
:101EFC000010024000127A0000093D0080B485B049
:101F0C0000AF78600A4B1B680A4AA2FB03235B0AEA
:101F1C007A6802FB03F3FB6000BFFB685A1EFA6091
:101F2C00002BF9D100BF00BF1437BD4680BC7047F1
:101F3C000C000020D34D621080B582B000AF7860E9
:101F4C007B68002B01D1012341E07B6893F83D3085
:101F5C00DBB2002B06D17B68002283F83C2078682A
:101F6C00FEF7C4FC7B68022283F83D207B681A686C
:101F7C007B6804331946104600F06AFA7B6801222C
:101F8C0083F846207B68012283F83E207B6801227F
:101F9C0083F83F207B68012283F840207B68012274
:101FAC0083F841207B68012283F842207B68012260
:101FBC0083F843207B68012283F844207B6801224C
:101FCC0083F845207B68012283F83D2000231846C6
:101FDC000837BD4680BD000080B485B000AF786086
:101FEC007B6893F83D30DBB2012B01D0012335E047
:101FFC007B68022283F83D207B681B68DA687B686B
:10200C001B6842F00102DA607B681B68164A934237
:10201C0009D07B681B68B3F1804F04D07B681B68C8
:10202C00124A934211D17B681B689B6803F007032B
:10203C00FB60FB68062B10D07B681B681A687B68FA
:10204C001B6842F001021A6007E07B681B681A6883
:10205C007B681B6842F001021A6000231846143793
:10206C00BD4680BC704700BF002C014000040040FE
:10207C0080B582B000AF78607B681B681B6903F089
:10208C000203022B22D17B681B68DB6803F002037E
:10209C00022B1BD17B681B686FF002021A617B68F4
:1020AC0001221A777B681B689B6903F00303002BE2
:1020BC0003D0786800F0B1F905E0786800F0A4F975
:1020CC00786800F0B3F97B6800221A777B681B688C
:1020DC001B6903F00403042B22D17B681B68DB68AB
:1020EC0003F00403042B1BD17B681B686FF0040204
:1020FC001A617B6802221A777B681B689B6903F460
:10210C004073002B03D0786800F087F905E07868FD
:10211C0000F07AF9786800F089F97B6800221A7768
:10212C007B681B681B6903F00803082B22D17B68B2
:10213C001B68DB6803F00803082B1BD17B681B684A
:10214C006FF008021A617B6804221A777B681B689F
:10215C00DB6903F00303002B03D0786800F05DF912
:10216C0005E0786800F050F9786800F05FF97B685A
:10217C0000221A777B681B681B6903F01003102B75
:10218C0022D17B681B68DB6803F01003102B1BD17A
:10219C007B681B686FF010021A617B6808221A7743
:1021AC007B681B68DB6903F44073002B03D07868F1
:1021BC0000F033F905E0786800F026F9786800F053
:1021CC0035F97B6800221A777B681B681B6903F062
:1021DC000103012B0ED17B681B68DB6803F0010344
:1021EC00012B07D17B681B686FF001021A617868BC
:1021FC00FEF7EEF97B681B681B6903F08003802BEC
:10220C000ED17B681B68DB6803F08003802B07D141
:10221C007B681B686FF080021A61786800F067FABF
:10222C007B681B681B6903F04003402B0ED17B6855
:10223C001B68DB6803F04003402B07D17B681B68ED
:10224C006FF040021A61786800F0F9F87B681B683F
:10225C001B6903F02003202B0ED17B681B68DB6805
:10226C0003F02003202B07D17B681B686FF0200242
:10227C001A61786800F032FA00BF0837BD4680BD9D
:10228C0080B584B000AF786039607B6893F83C30DF
:10229C00012B01D10223B3E07B68012283F83C209F
:1022AC007B68022283F83D207B681B689B68FB607F
:1022BC00FB6823F07703FB60FB6823F47F43FB6030
:1022CC007B681B68FA689A603B681B68B3F5005F13
:1022DC003ED0B3F5005F00F28780B3F5805F00F06D
:1022EC008580B3F5805F7FD8702B1AD0702B7BD88C
:1022FC00602B50D0602B77D8502B3CD0502B73D800
:10230C00402B58D0402B6FD8302B64D0302B6BD84F
:10231C00202B60D0202B67D8002B5CD0102B5AD0F0
:10232C0062E07B6818683B6899683B685A683B6850
:10233C00DB6800F05CF97B681B689B68FB60FB68E2
:10234C0043F07703FB607B681B68FA689A604EE089
:10235C007B6818683B6899683B685A683B68DB681F
:10236C0000F045F97B681B689A687B681B6842F42F
:10237C0080429A603BE07B6818683B6859683B6810
:10238C00DB681A4600F0BCF87B681B6850211846C5
:10239C0000F013F92BE07B6818683B6859683B68C0
:1023AC00DB681A4600F0DAF87B681B686021184677
:1023BC0000F003F91BE07B6818683B6859683B68C0
:1023CC00DB681A4600F09CF87B681B6840211846B5
:1023DC0000F0F3F80BE07B681A683B681B68194641
:1023EC00104600F0EAF802E000BF00E000BF7B6896
:1023FC00012283F83D207B68002283F83C200023D7
:10240C0018461037BD4680BD80B483B000AF7860ED
:10241C0000BF0C37BD4680BC704780B483B000AFA2
:10242C00786000BF0C37BD4680BC704780B483B069
:10243C0000AF786000BF0C37BD4680BC704780B4DD
:10244C0083B000AF786000BF0C37BD4680BC7047CE
:10245C0080B485B000AF786039607B681B68FB6026
:10246C007B68254A934207D07B68B3F1804F03D039
:10247C007B68224A934208D1FB6823F07003FB600F
:10248C003B685B68FA681343FB607B681A4A9342AB
:10249C0007D07B68B3F1804F03D07B68174A934217
:1024AC0008D1FB6823F44073FB603B68DB68FA6877
:1024BC001343FB60FB6823F080023B685B691343AA
:1024CC00FB607B68FA681A603B689A687B68DA6222
:1024DC003B681A687B689A627B68074A934203D10F
:1024EC003B681A697B681A637B6801225A6100BFDA
:1024FC001437BD4680BC7047002C014000040040DE
:10250C0080B487B000AFF860B9607A60FB681B6A72
:10251C007B61FB681B6A23F00102FB681A62FB6893
:10252C009B693B613B6923F0F0033B617B681B01BA
:10253C003A6913433B617B6923F00A037B617A6937
:10254C00BB6813437B61FB683A699A61FB687A69E3
:10255C001A6200BF1C37BD4680BC704780B487B080
:10256C0000AFF860B9607A60FB681B6A23F0100258
:10257C00FB681A62FB689B697B61FB681B6A3B61A9
:10258C007B6923F470437B617B681B037A6913437B
:10259C007B613B6923F0A0033B61BB681B013A697B
:1025AC0013433B61FB687A699A61FB683A691A626A
:1025BC0000BF1C37BD4680BC704780B485B000AFEF
:1025CC00786039607B689B68FB60FB6823F0700364
:1025DC00FB603A68FB68134343F00703FB607B68BE
:1025EC00FA689A6000BF1437BD4680BC704780B44F
:1025FC0087B000AFF860B9607A603B60FB689B689D
:10260C007B617B6923F47F437B613B681A027B68A7
:10261C001A43BB6813437A6913437B61FB687A697D
:10262C009A6000BF1C37BD4680BC704780B485B033
:10263C0000AF786039607B6893F83C30012B01D196
:10264C00022341E07B68012283F83C207B68022254
:10265C0083F83D207B681B685B68FB607B681B68AC
:10266C009B68BB60FB6823F07003FB603B681B68D6
:10267C00FA681343FB607B681B68FA685A607B68D6
:10268C001B68144A934209D07B681B68B3F1804FD6
:10269C0004D07B681B68104A93420CD1BB6823F0B2
:1026AC008003BB603B685B68BA681343BB607B68A4
:1026BC001B68BA689A607B68012283F83D207B68AE
:1026CC00002283F83C20002318461437BD4680BCFA
:1026DC00704700BF002C01400004004080B483B060
:1026EC0000AF786000BF0C37BD4680BC704780B42B
:1026FC0083B000AF786000BF0C37BD4680BC70471C
:10270C0070B500260C4D0D4C641BA410A64209D1CB
:10271C0000F022F800260A4D0A4C641BA410A642B5
:10272C0005D170BD55F8043B98470136EEE755F8D6
:10273C00043B98470136F2E79C2700089C270008C9
:10274C009C270008A027000803460244934200D1AE
:10275C00704703F8011BF9E7F8B500BFF8BC08BCDB
:10276C009E467047F8B500BFF8BC08BC9E46704743
:10277C0002030405060708090A0B0C0D0E0F1010B6
:10278C000000000000000000010203040607080915
:04279C0031010008FF
:0427A0000D0100081F
:1027A4000100000001000000010000000024F4000A
:0827B40010000000010000000C
:04000005080010C11E
:00000001FF
