:020000040800F2
:1000000000280020F10D0008810D0008870D000870
:100010008D0D0008930D0008990D000800000000E8
:100020000000000000000000000000009F0D00081C
:10003000AB0D000800000000B70D0008C30D00085C
:10004000390E0008390E0008390E0008390E000874
:10005000390E0008390E0008390E0008390E000864
:10006000390E0008390E0008390E0008390E000854
:10007000390E0008390E0008390E0008390E000844
:10008000390E0008390E0008390E0008390E000834
:10009000390E0008390E0008390E0008390E000824
:1000A000390E0008390E0008390E0008390E000814
:1000B000D10D0008390E000800000000390E0008BC
:1000C000390E00080000000000000000390E000892
:1000D00000000000390E0008390E00080000000082
:1000E000390E0008390E0008390E00080000000023
:1000F0000000000000000000000000000000000000
:0C01000000000000000000005FF808F1A3
:10010C0010B5054C237833B9044B13B10448AFF345
:10011C0000800123237010BD34000020000000007B
:10012C006824000808B5034B1BB103490348AFF31F
:10013C00008008BD00000000380000206824000882
:10014C0080B500AF00F074FE00F030F900F0B6F9A5
:10015C0000F068F98A4801F0C1FD0022202189488D
:10016C0001F052F901224021864801F04DF901229B
:10017C008021844801F048F901224FF480718148B4
:10018C0001F042F901224FF400717E4801F03CF974
:10019C0000F00AFD4FF47A7000F060FA7A4B1B689D
:1001AC00012B2DD11021774801F046F9774B1B68B4
:1001BC000133764A1360754B1B683B2B07DD734B81
:1001CC0000221A60724B1B680133714A1360704B2A
:1001DC001B683B2B07DD6E4B00221A606D4B1B68B6
:1001EC0001336C4A13606B4B1B68172B02DD694B98
:1001FC0000221A6000F0B8F94FF47A7000F02EFA71
:10020C00654B1B68012B40F09A80644B1B68002BDC
:10021C001ED1002240215B4801F0F6F8012280211A
:10022C00584801F0F1F801224FF48071554801F063
:10023C00EBF801224FF40071524801F0E5F8574BEE
:10024C001B68574A52F82330184600F069FA67E0E9
:10025C00524B1B68012B1ED101224021494801F051
:10026C00D3F800228021474801F0CEF801224FF448
:10027C008071444801F0C8F801224FF400714148E4
:10028C0001F0C2F8454B1B68454A52F8233018461A
:10029C0000F046FA44E0414B1B68022B1ED10122B0
:1002AC004021384801F0B0F801228021354801F096
:1002BC00ABF800224FF48071324801F0A5F801220E
:1002CC004FF400712F4801F09FF8344B1B68344AEF
:1002DC0052F82330184600F023FA21E02F4B1B680C
:1002EC00032B1DD101224021264801F08DF801225B
:1002FC008021244801F088F801224FF480712148B4
:10030C0001F082F800224FF400711E4801F07CF8D5
:10031C00224B1B68224A52F82330184600F000FA90
:10032C001E4B1B6801335A4203F0030302F0030215
:10033C0058BF5342194A1360174B00221A60194BCD
:10034C001B68012B7FF42AAF00F02EFC00F092FC0E
:10035C00154B1B6801335A4203F0070302F00702E6
:10036C0058BF5342104A13600E4B00221A600E4BBA
:10037C001B68002B7FF412AF00F046F90EE700BFAC
:10038C005000002000080140A400002008000020BC
:10039C000400002000000020A8000020980000208D
:1003AC000C000020AC0000209C00002080B590B018
:1003BC0000AF07F1180328220021184602F046F876
:1003CC003B1D00221A605A609A60DA601A6102239F
:1003DC00BB610123BB621023FB6200237B6307F12B
:1003EC001803184601F042F80346002B01D000F028
:1003FC0075FC0F237B600023BB600023FB60002394
:10040C003B6100237B613B1D0021184601F0B0FAD3
:10041C000346002B01D000F061FC00BF4037BD4605
:10042C0080BD000080B586B000AF07F10803002244
:10043C001A605A609A60DA603B4600221A605A6071
:10044C001D4B4FF080421A601B4B40F21F325A601A
:10045C00194B00229A60184B0922DA60164B0022C5
:10046C001A61154B00229A61134801F0E7FB034611
:10047C00002B01D000F032FC4FF48053BB6007F12D
:10048C00080319460C4801F07DFD0346002B01D0F2
:10049C0000F024FC00233B6000237B603B461946A4
:1004AC00054801F045FF0346002B01D000F016FC77
:1004BC0000BF1837BD4680BD5000002080B586B007
:1004CC0000AF07F1080300221A605A609A60DA60E4
:1004DC00224B9B69214A43F0040393611F4B9B6998
:1004EC0003F004037B607B681C4B9B691B4A43F045
:1004FC0008039361194B9B6903F008033B603B684D
:10050C0000224FF6FC71164800F07EFF00224FF6D9
:10051C007F71144800F078FF4FF6FC73BB60012329
:10052C00FB6000233B6102237B6107F10803194642
:10053C000B4800F0EDFD4FF67F73BB600123FB60B1
:10054C0000233B6102237B6107F108031946054830
:10055C0000F0DEFD00BF1837BD4680BD0010024024
:10056C0000080140000C014080B400AF224B1B6816
:10057C00082B03DC214B00221A6009E01E4B1B6880
:10058C001F4A82FB03129210DB17D31A1B4A13600B
:10059C001C4B1B68082B03DC184B00229A6009E0EB
:1005AC00184B1B68164A82FB03129210DB17D31AE6
:1005BC00124A9360104B1968114B83FB01239A105C
:1005CC00CB17D21A13469B0013445B00CA1A0B4B71
:1005DC005A600C4B19680A4B83FB01239A10CB17FA
:1005EC00D21A13469B0013445B00CA1A034BDA6001
:1005FC0000BFBD4680BC7047000000200C000020EE
:10060C00676666660400002080B483B000AF0023E8
:10061C007B6017E0104A7B6813441B785B00FB700F
:10062C000D4A7B6813441B78DB09BB70FA78BB78E6
:10063C001343D9B2084A7B6813440A461A707B6884
:10064C0001337B607B68072BE4DD00BF00BF0C37F8
:10065C00BD4680BC704700BF1C00002080B483B036
:10066C0000AF7860084B1B687A6892FBF3F3074A7B
:10067C001360074B00221A60064B00221A6000BF61
:10068C000C37BD4680BC704724000020A000002021
:10069C00A4000020A800002080B400AF1B4B1B68F6
:1006AC00002B2FDD194B1B68013B184A1360174BAD
:1006BC001B68002B02D1164B01221A60134B1968D0
:1006CC00144B83FB0123DA10CB17D21A13469B0071
:1006DC0013449A001344CA1A002A02D10E4B012269
:1006EC001A600A4B1A680B4B83FB02131911D317B0
:1006FC00CB1A322101FB03F3D31A002B02D1074B87
:10070C0001221A6000BFBD4680BC7047A0000020CB
:10071C00A40000201F85EB51A8000020AC00002095
:10072C0080B582B000AF78607B68012B23D10122A9
:10073C000121C24800F068FE00220221BF4800F0EF
:10074C0063FE00220421BD4800F05EFE0122082158
:10075C00BA4800F059FE01221021B84800F054FEAE
:10076C0001222021B54800F04FFE01224021B34860
:10077C0000F04AFE5DE17B68022B23D100220121AF
:10078C00AE4800F041FE00220221AC4800F03CFED5
:10079C0001220421A94800F037FE00220821A748B5
:1007AC0000F032FE00221021A44800F02DFE0122A0
:1007BC002021A24800F028FE002240219F4800F092
:1007CC0023FE36E17B68032B23D1002201219B48B9
:1007DC0000F01AFE00220221984800F015FE0022BB
:1007EC000421964800F010FE00220821934800F0E6
:1007FC000BFE01221021914800F006FE012220215F
:10080C008E4800F001FE002240218C4800F0FCFDD7
:10081C000FE17B68042B23D101220121874800F0D2
:10082C00F3FD00220221854800F0EEFD0022042198
:10083C00824800F0E9FD01220821804800F0E4FD27
:10084C00012210217D4800F0DFFD002220217B4891
:10085C0000F0DAFD00224021784800F0D5FDE8E0F8
:10086C007B68052B23D100220121744800F0CCFDBC
:10087C0001220221714800F0C7FD002204216F48BB
:10088C0000F0C2FD002208216C4800F0BDFD0122E1
:10089C0010216A4800F0B8FD00222021674800F0C2
:1008AC00B3FD00224021654800F0AEFDC1E07B683D
:1008BC00062B23D100220121604800F0A5FD012266
:1008CC0002215E4800F0A0FD002204215B4800F0EC
:1008DC009BFD00220821594800F096FD00221021B2
:1008EC00564800F091FD00222021544800F08CFD68
:1008FC0000224021514800F087FD9AE07B68072BCD
:10090C0023D1002201214D4800F07EFD002202215E
:10091C004A4800F079FD00220421484800F074FD9B
:10092C0001220821454800F06FFD012210214348A7
:10093C0000F06AFD01222021404800F065FD0122F3
:10094C0040213E4800F060FD73E07B68082B23D10A
:10095C0000220121394800F057FD002202213748BE
:10096C0000F052FD00220421344800F04DFD00221D
:10097C000821324800F048FD002210212F4800F0D9
:10098C0043FD002220212D4800F03EFD0022402195
:10099C002A4800F039FD4CE07B68092B23D100225A
:1009AC000121264800F030FD00220221234800F0EE
:1009BC002BFD00220421214800F026FD00220821F5
:1009CC001E4800F021FD012210211C4800F01CFDE6
:1009DC0000222021194800F017FD00224021174861
:1009EC0000F012FD25E07B68002B22D100220121B2
:1009FC00124800F009FD00220221104800F004FD0D
:100A0C00002204210D4800F0FFFC002208210B48B5
:100A1C0000F0FAFC00221021084800F0F5FC00223E
:100A2C002021064800F0F0FC01224021034800F090
:100A3C00EBFC00BF0837BD4680BD00BF000C014079
:100A4C0080B582B000AF786039607B68002B06D12E
:100A5C003B68DBB21A460421294800F0D5FC7B68C0
:100A6C00012B06D13B68DBB21A460821244800F062
:100A7C00CBFC7B68022B07D13B68DBB21A464FF4E8
:100A8C0080611F4800F0C0FC7B68032B07D13B68DA
:100A9C00DBB21A464FF40061194800F0B5FC7B68D4
:100AAC00042B07D13B68DBB21A464FF48051144833
:100ABC0000F0AAFC7B68052B07D13B68DBB21A4619
:100ACC004FF400510E4800F09FFC7B68062B07D1B9
:100ADC003B68DBB21A464FF48041094800F094FCA5
:100AEC007B68072B07D13B68DBB21A464FF40041F9
:100AFC00034800F089FC00BF0837BD4680BD00BF2D
:100B0C000008014080B582B000AF78607B68002B94
:100B1C0005D100224FF48071224800F075FC7B68EF
:100B2C00012B05D100224FF400711E4800F06CFC23
:100B3C007B68022B05D100224FF48061194800F02C
:100B4C0063FC7B68032B05D100224FF40061154830
:100B5C0000F05AFC7B68042B05D100224FF4805125
:100B6C00104800F051FC7B68052B05D100224FF496
:100B7C0000510C4800F048FC7B68062B05D1002284
:100B8C004FF48041074800F03FFC7B68072B05D1F0
:100B9C0000224FF40041034800F036FC00BF083738
:100BAC00BD4680BD000C014080B500AF0122042180
:100BBC002E4800F029FC012208212C4800F024FCCE
:100BCC0001224FF48061294800F01EFC01224FF4F1
:100BDC000061264800F018FC01224FF48051234894
:100BEC0000F012FC01224FF40051204800F00CFCE4
:100BFC0001224FF480411D4800F006FC01224FF405
:100C0C0000411A4800F000FC01224FF48071184892
:100C1C0000F0FAFB01224FF40071154800F0F4FBD0
:100C2C0001224FF48061124800F0EEFB01224FF4D8
:100C3C0000610F4800F0E8FB01224FF480510C4892
:100C4C0000F0E2FB01224FF40051094800F0DCFBFC
:100C5C0001224FF48041064800F0D6FB01224FF4EC
:100C6C000041034800F0D0FB00BF80BD00080140EC
:100C7C00000C014080B582B000AF114B1B681846C8
:100C8C00FFF740FF00237B6011E00D4B1B680D4A02
:100C9C00D35C1A467B6842FA03F303F001033B6012
:100CAC0039687868FFF7CCFE7B6801337B607B6822
:100CBC00072BEADD00BF00BF0837BD4680BD00BF73
:100CCC009C0000201C00002080B582B000AF786032
:100CDC00FFF7E2FC00BF0837BD4680BD80B400AF13
:100CEC0072B600BFFEE7000080B483B000AF0E4BBD
:100CFC009B690D4A43F0010393610B4B9B6903F015
:100D0C0001037B607B68084BDB69074A43F0805327
:100D1C00D361054BDB6903F080533B603B6800BF3C
:100D2C000C37BD4680BC70470010024080B584B0C3
:100D3C0000AF78607B681B68B3F1804F13D10C4B0C
:100D4C00DB690B4A43F00103D361094BDB6903F008
:100D5C000103FB60FB68002200211C2000F0A1F9BC
:100D6C001C2000F0BAF900BF1037BD4680BD00BF93
:100D7C000010024080B400AFFEE780B400AFFEE785
:100D8C0080B400AFFEE780B400AFFEE780B400AFE4
:100D9C00FEE780B400AF00BFBD4680BC704780B496
:100DAC0000AF00BFBD4680BC704780B400AF00BF31
:100DBC00BD4680BC704780B500AF00F07FF800BF27
:100DCC0080BD000080B500AF024800F0D3FF00BF2B
:100DDC0080BD00BF5000002080B400AF00BFBD46F6
:100DEC0080BC70470C480D490D4A002302E0D458D2
:100DFC00C4500433C4188C42F9D30A4A0A4C002359
:100E0C0001E013600432A242FBD3FFF7E5FF01F0CF
:100E1C00F9FAFFF795F97047000000203400002024
:100E2C00A824000834000020B4000020FEE70000D5
:100E3C0080B500AF084B1B68074A43F010031360E2
:100E4C00032000F023F90F2000F008F8FFF74CFF07
:100E5C000023184680BD00BF0020024080B582B040
:100E6C0000AF7860124B1A68124B1B7819464FF47E
:100E7C007A73B3FBF1F3B2FBF3F3184600F03BF9D2
:100E8C000346002B01D001230EE07B680F2B0AD800
:100E9C00002279684FF0FF3000F003F9064A7B68B6
:100EAC001360002300E0012318460837BD4680BDBF
:100EBC0028000020300000202C00002080B400AF5F
:100ECC00054B1B781A46054B1B681344034A1360E9
:100EDC0000BFBD4680BC704730000020B000002031
:100EEC0080B400AF024B1B681846BD4680BC7047EF
:100EFC00B000002080B485B000AF78607B6803F050
:100F0C000703FB600C4BDB68BB60BA684FF6FF0352
:100F1C001340BB60FB681A02BB68134343F0BF630A
:100F2C0043F40033BB60044ABB68D36000BF143782
:100F3C00BD4680BC704700BF00ED00E080B400AF40
:100F4C00044BDB681B0A03F007031846BD4680BC44
:100F5C00704700BF00ED00E080B483B000AF0346E3
:100F6C00FB7197F90730002B0BDBFB7903F01F02A9
:100F7C00064997F907305B09012000FA02F241F8A3
:100F8C00232000BF0C37BD4680BC704700E100E059
:100F9C0080B483B000AF03463960FB7197F907301A
:100FAC00002B0ADB3B68DAB20C4997F907301201C7
:100FBC00D2B20B4483F800230AE03B68DAB208494A
:100FCC00FB7903F00F03043B1201D2B20B441A76E7
:100FDC0000BF0C37BD4680BC704700BF00E100E08D
:100FEC0000ED00E080B489B000AFF860B9607A60C1
:100FFC00FB6803F00703FB61FB69C3F10703042BD8
:10100C0028BF0423BB61FB690433062B02D9FB699F
:10101C00033B00E000237B614FF0FF32BB6902FA17
:10102C0003F3DA43BB681A407B699A404FF0FF31F7
:10103C007B6901FA03F3D9437B680B4013431846D1
:10104C002437BD4680BC704780B582B000AF786055
:10105C007B68013BB3F1807F01D301230FE00A4A87
:10106C007B68013B53600F214FF0FF30FFF790FF7F
:10107C00054B00229A60044B07221A600023184685
:10108C000837BD4680BD00BF10E000E080B582B0DF
:10109C0000AF78607868FFF72DFF00BF0837BD46BA
:1010AC0080BD80B586B000AF0346B9607A60FB7333
:1010BC0000237B61FFF742FF78617A68B968786931
:1010CC00FFF790FF024697F90F3011461846FFF7CD
:1010DC005FFF00BF1837BD4680BD80B582B000AF42
:1010EC000346FB7197F907301846FFF735FF00BF31
:1010FC000837BD4680BD80B582B000AF7860786897
:10110C00FFF7A2FF034618460837BD4680BD000016
:10111C0080B48BB000AF7860396000237B62002311
:10112C003B6261E101227B6A02FA03F3FB613B68DB
:10113C001B68FA691340BB61BA69FB699A4240F0BB
:10114C0050813B685B68974A93425ED0954A9342C4
:10115C0075D8954A934258D0934A93426FD8934A84
:10116C00934252D0914A934269D8914A93424CD0BF
:10117C008F4A934263D88F4A934246D08D4A93420A
:10118C005DD8122B2AD8122B59D801A252F823F071
:10119C0017120008F111000803120008451200088C
:1011AC004B1200084B1200084B1200084B1200089F
:1011BC004B1200084B1200084B1200084B1200088F
:1011CC004B1200084B1200084B1200084B1200087F
:1011DC004B120008F91100080D120008764A9342D0
:1011EC0013D02CE03B68DB683B6229E03B68DB6892
:1011FC0004333B6224E03B68DB6808333B621FE04E
:10120C003B68DB680C333B621AE03B689B68002B45
:10121C0002D104233B6213E03B689B68012B05D190
:10122C0008233B627B68FA691A6109E008233B6278
:10123C007B68FA695A6103E000233B6200E000BF5F
:10124C00BB69FF2B01D87B6801E07B6804337B61B1
:10125C00BB69FF2B02D87B6A9B0002E07B6A083BD0
:10126C009B003B617B691A680F213B6901FA03F310
:10127C00DB431A40396A3B6901FA03F31A437B6971
:10128C001A603B685B6803F08053002B00F0A98068
:10129C004A4B9B69494A43F001039361474B9B6955
:1012AC0003F00103BB60BB68454A7B6A9B080233B1
:1012BC0052F82330FB607B6A03F003039B000F2280
:1012CC0002FA03F3DB43FA681340FB607B683D4A88
:1012DC0093420DD07B683C4A934207D07B683B4AD3
:1012EC00934201D1022304E0032302E0012300E036
:1012FC0000237A6A02F0030292009340FA681343C7
:10130C00FB602F497B6A9B080233FA6841F8232063
:10131C003B685B6803F48033002B06D02C4B1A68B7
:10132C002B49BB6913430B6006E0294B1A68BB6958
:10133C00DB43274913400B603B685B6803F40033C5
:10134C00002B06D0224B5A682149BB6913434B60D2
:10135C0006E01F4B5A68BB69DB431D4913404B60C9
:10136C003B685B6803F48013002B06D0184B9A681B
:10137C001749BB6913438B6006E0154B9A68BB6930
:10138C00DB43134913408B603B685B6803F4001329
:10139C00002B1FD00E4BDA680D49BB691343CB6091
:1013AC001FE000BF000032100000311000002210BE
:1013BC00000021100000121000001110001002405B
:1013CC000000014000080140000C014000100140E9
:1013DC00000401400B4BDA68BB69DB43094913403D
:1013EC00CB607B6A01337B623B681A687B6A22FAAA
:1013FC0003F3002B7FF496AE00BF00BF2C37BD4625
:10140C0080BC70470004014080B483B000AF7860AA
:10141C000B467B8013467B707B78002B03D07A883D
:10142C007B681A6103E07B881A047B681A6100BF31
:10143C000C37BD4680BC704780B485B000AF786077
:10144C000B467B807B68DB68FB607A88FB6813400B
:10145C001A04FB68D9437B880B401A437B681A61DA
:10146C0000BF1437BD4680BC7047000080B586B005
:10147C0000AF78607B68002B01D1012372E27B689E
:10148C001B6803F00103002B00F08780924B5B6814
:10149C0003F00C03042B0CD08F4B5B6803F00C0394
:1014AC00082B12D18C4B5B6803F48033B3F5803F6F
:1014BC000BD1894B1B6803F40033002B6CD07B6879
:1014CC005B68002B68D101234CE27B685B68B3F549
:1014DC00803F06D1804B1B687F4A43F480331360F6
:1014EC002EE07B685B68002B0CD17B4B1B687A4A27
:1014FC0023F480331360784B1B68774A23F48023E2
:10150C0013601DE07B685B68B3F5A02F0CD1724BA8
:10151C001B68714A43F4802313606F4B1B686E4A3F
:10152C0043F4803313600BE06B4B1B686A4A23F463
:10153C0080331360684B1B68674A23F48023136065
:10154C007B685B68002B13D0FFF7CAFC386108E09E
:10155C00FFF7C6FC02463B69D31A642B01D903235F
:10156C0000E25D4B1B6803F40033002BF0D014E059
:10157C00FFF7B6FC386108E0FFF7B2FC02463B69A6
:10158C00D31A642B01D90323ECE1534B1B6803F4EE
:10159C000033002BF0D100E000BF7B681B6803F028
:1015AC000203002B63D04C4B5B6803F00C03002B45
:1015BC000BD0494B5B6803F00C03082B1CD1464B3A
:1015CC005B6803F48033002B16D1434B1B6803F08C
:1015DC000203002B05D07B681B69012B01D0012372
:1015EC00C0E13D4B1B6823F0F8027B685B69DB00B4
:1015FC00394913430B603AE07B681B69002B20D000
:10160C00364B01221A60FFF76BFC386108E0FFF7DC
:10161C0067FC02463B69D31A022B01D90323A1E1D3
:10162C002D4B1B6803F00203002BF0D02A4B1B68D8
:10163C0023F0F8027B685B69DB00274913430B60DE
:10164C0015E0264B00221A60FFF74AFC386108E0CF
:10165C00FFF746FC02463B69D31A022B01D9032340
:10166C0080E11D4B1B6803F00203002BF0D17B685B
:10167C001B6803F00803002B3AD07B689B69002B96
:10168C0019D0174B01221A60FFF72AFC386108E0C9
:10169C00FFF726FC02463B69D31A022B01D9032320
:1016AC0060E10D4B5B6A03F00203002BF0D00120CC
:1016BC0000F0A6FA1CE00A4B00221A60FFF710FC9F
:1016CC0038610FE0FFF70CFC02463B69D31A022B82
:1016DC0008D9032346E100BF00100240000042423B
:1016EC0080044242924B5B6A03F00203002BE9D167
:1016FC007B681B6803F00403002B00F0A68000231A
:10170C00FB758B4BDB6903F08053002B0DD1884BA1
:10171C00DB69874A43F08053D361854BDB6903F067
:10172C008053BB60BB680123FB75824B1B6803F4C1
:10173C008073002B18D17F4B1B687E4A43F4807357
:10174C001360FFF7CDFB386108E0FFF7C9FB0246D9
:10175C003B69D31A642B01D9032303E1754B1B6836
:10176C0003F48073002BF0D07B68DB68012B06D16F
:10177C006F4B1B6A6E4A43F0010313622DE07B68CA
:10178C00DB68002B0CD16A4B1B6A694A23F00103FE
:10179C001362674B1B6A664A23F0040313621CE056
:1017AC007B68DB68052B0CD1614B1B6A604A43F0EC
:1017BC00040313625E4B1B6A5D4A43F00103136220
:1017CC000BE05B4B1B6A5A4A23F001031362584B24
:1017DC001B6A574A23F0040313627B68DB68002BF7
:1017EC0015D0FFF77DFB38610AE0FFF779FB024665
:1017FC003B69D31A41F28832934201D90323B1E0F9
:10180C004B4B1B6A03F00203002BEED014E0FFF7E6
:10181C0067FB38610AE0FFF763FB02463B69D31AAA
:10182C0041F28832934201D903239BE0404B1B6A5F
:10183C0003F00203002BEED1FB7D012B05D13C4BB9
:10184C00DB693B4A23F08053D3617B68DB69002B57
:10185C0000F08780364B5B6803F00C03082B61D0DB
:10186C007B68DB69022B46D1334B00221A60FFF7F1
:10187C0037FB386108E0FFF733FB02463B69D31AAC
:10188C00022B01D903236DE0294B1B6803F0007375
:10189C00002BF0D17B681B6AB3F5803F08D1244B39
:1018AC005B6823F400327B689B68214913434B60CF
:1018BC001F4B5B6823F474127B68196A7B685B6A44
:1018CC000B431B4913434B601B4B01221A60FFF760
:1018DC0007FB386108E0FFF703FB02463B69D31AAC
:1018EC00022B01D903233DE0114B1B6803F000735D
:1018FC00002BF0D035E0104B00221A60FFF7F0FA05
:10190C00386108E0FFF7ECFA02463B69D31A022B68
:10191C0001D9032326E0064B1B6803F00073002B50
:10192C00F0D11EE07B68DB69012B07D1012319E0A4
:10193C000010024000700040600042420B4B5B689C
:10194C00FB60FB6803F480327B681B6A9A4206D109
:10195C00FB6803F470127B685B6A9A4201D0012326
:10196C0000E0002318461837BD4680BD0010024029
:10197C0080B584B000AF786039607B68002B01D1F2
:10198C000123D0E06A4B1B6803F007033A689A42C4
:10199C0010D9674B1B6823F0070265493B6813435A
:1019AC000B60634B1B6803F007033A689A4201D043
:1019BC000123B8E07B681B6803F00203002B20D0E6
:1019CC007B681B6803F00403002B05D0594B5B6844
:1019DC00584A43F4E06353607B681B6803F00803C8
:1019EC00002B05D0534B5B68524A43F46053536051
:1019FC00504B5B6823F0F0027B689B684D491343A6
:101A0C004B607B681B6803F00103002B40D07B68A4
:101A1C005B68012B07D1474B1B6803F40033002B89
:101A2C0015D101237FE07B685B68022B07D1414B0A
:101A3C001B6803F00073002B09D1012373E03D4BAD
:101A4C001B6803F00203002B01D101236BE0394B1F
:101A5C005B6823F003027B685B68364913434B6079
:101A6C00FFF73EFAF8600AE0FFF73AFA0246FB6825
:101A7C00D31A41F28832934201D9032353E02D4B00
:101A8C005B6803F00C027B685B689B009A42EBD1AD
:101A9C00274B1B6803F007033A689A4210D2244B79
:101AAC001B6823F0070222493B6813430B60204B51
:101ABC001B6803F007033A689A4201D0012332E015
:101ACC007B681B6803F00403002B08D0194B5B6880
:101ADC0023F4E0627B68DB68164913434B607B6838
:101AEC001B6803F00803002B09D0124B5B6823F42E
:101AFC0060527B681B69DB000E4913434B6000F09E
:101B0C0021F802460B4B5B681B0903F00F030A49D3
:101B1C00CB5C22FA03F3094A1360094B1B68184685
:101B2C00FFF79CF9002318461037BD4680BD00BF57
:101B3C0000200240001002409024000828000020E1
:101B4C002C00002090B48AB000AF294B3C1D0FCB69
:101B5C0084E80F0040F201233B800023FB6100234B
:101B6C00BB6100237B6200237B6100233B62214B22
:101B7C005B68FB61FB6903F00C03042B02D0082BA0
:101B8C0003D02BE01C4B3B622BE0FB699B0C03F05E
:101B9C000F0328333B4413F8243C7B61FB6903F4AB
:101BAC008033002B12D0134B5B685B0C03F00103EA
:101BBC0028333B4413F8283CBB617B690E4A03FB7A
:101BCC0002F2BB69B2FBF3F37B6204E07B690B4A64
:101BDC0002FB03F37B627B6A3B6202E0064B3B62D7
:101BEC0000BF3B6A18462837BD4690BC704700BF03
:101BFC00802400080010024000127A0000093D0009
:101C0C0080B485B000AF78600A4B1B680A4AA2FB0F
:101C1C0003235B0A7A6802FB03F3FB6000BFFB68DB
:101C2C005A1EFA60002BF9D100BF00BF1437BD4615
:101C3C0080BC704728000020D34D621080B582B064
:101C4C0000AF78607B68002B01D1012341E07B68F9
:101C5C0093F83D30DBB2002B06D17B68002283F871
:101C6C003C207868FFF762F87B68022283F83D20FD
:101C7C007B681A687B6804331946104600F06AFAD0
:101C8C007B68012283F846207B68012283F83E2082
:101C9C007B68012283F83F207B68012283F8402077
:101CAC007B68012283F841207B68012283F8422063
:101CBC007B68012283F843207B68012283F844204F
:101CCC007B68012283F845207B68012283F83D2044
:101CDC00002318460837BD4680BD000080B485B08F
:101CEC0000AF78607B6893F83D30DBB2012B01D0FC
:101CFC00012335E07B68022283F83D207B681B685A
:101D0C00DA687B681B6842F00102DA607B681B684A
:101D1C00164A934209D07B681B68B3F1804F04D0FC
:101D2C007B681B68124A934211D17B681B689B68C5
:101D3C0003F00703FB60FB68062B10D07B681B6865
:101D4C001A687B681B6842F001021A6007E07B6826
:101D5C001B681A687B681B6842F001021A6000233A
:101D6C0018461437BD4680BC704700BF002C01409C
:101D7C000004004080B582B000AF78607B681B68BF
:101D8C001B6903F00203022B22D17B681B68DB6802
:101D9C0003F00203022B1BD17B681B686FF002025D
:101DAC001A617B6801221A777B681B689B6903F0B8
:101DBC000303002B03D0786800F0B1F905E07868D4
:101DCC0000F0A4F9786800F0B3F97B6800221A7768
:101DDC007B681B681B6903F00403042B22D17B680E
:101DEC001B68DB6803F00403042B1BD17B681B68A6
:101DFC006FF004021A617B6802221A777B681B68F9
:101E0C009B6903F44073002B03D0786800F087F9CA
:101E1C0005E0786800F07AF9786800F089F97B6859
:101E2C0000221A777B681B681B6903F00803082BD8
:101E3C0022D17B681B68DB6803F00803082B1BD1DD
:101E4C007B681B686FF008021A617B6804221A77A2
:101E5C007B681B68DB6903F00303002B03D07868F5
:101E6C0000F05DF905E0786800F050F9786800F052
:101E7C005FF97B6800221A777B681B681B6903F08B
:101E8C001003102B22D17B681B68DB6803F0100356
:101E9C00102B1BD17B681B686FF010021A617B68DA
:101EAC0008221A777B681B68DB6903F44073002BEC
:101EBC0003D0786800F033F905E0786800F026F973
:101ECC00786800F035F97B6800221A777B681B680C
:101EDC001B6903F00103012B0ED17B681B68DB68C7
:101EEC0003F00103012B07D17B681B686FF0010223
:101EFC001A617868FEF7E8FE7B681B681B6903F0C3
:101F0C008003802B0ED17B681B68DB6803F0800399
:101F1C00802B07D17B681B686FF080021A61786890
:101F2C0000F067FA7B681B681B6903F04003402BC9
:101F3C000ED17B681B68DB6803F04003402B07D194
:101F4C007B681B686FF040021A61786800F0F9F842
:101F5C007B681B681B6903F02003202B0ED17B6868
:101F6C001B68DB6803F02003202B07D17B681B6800
:101F7C006FF020021A61786800F032FA00BF08375F
:101F8C00BD4680BD80B584B000AF786039607B6899
:101F9C0093F83C30012B01D10223B3E07B68012282
:101FAC0083F83C207B68022283F83D207B681B6809
:101FBC009B68FB60FB6823F07703FB60FB6823F4F2
:101FCC007F43FB607B681B68FA689A603B681B6800
:101FDC00B3F5005F3ED0B3F5005F00F28780B3F538
:101FEC00805F00F08580B3F5805F7FD8702B1AD0AE
:101FFC00702B7BD8602B50D0602B77D8502B3CD0DB
:10200C00502B73D8402B58D0402B6FD8302B64D02A
:10201C00302B6BD8202B60D0202B67D8002B5CD0BA
:10202C00102B5AD062E07B6818683B6899683B6853
:10203C005A683B68DB6800F05CF97B681B689B683E
:10204C00FB60FB6843F07703FB607B681B68FA68F6
:10205C009A604EE07B6818683B6899683B685A68E0
:10206C003B68DB6800F045F97B681B689A687B6805
:10207C001B6842F480429A603BE07B6818683B68BE
:10208C0059683B68DB681A4600F0BCF87B681B6833
:10209C005021184600F013F92BE07B6818683B6858
:1020AC0059683B68DB681A4600F0DAF87B681B68F5
:1020BC006021184600F003F91BE07B6818683B6848
:1020CC0059683B68DB681A4600F09CF87B681B6813
:1020DC004021184600F0F3F80BE07B681A683B6867
:1020EC001B681946104600F0EAF802E000BF00E059
:1020FC0000BF7B68012283F83D207B68002283F8B7
:10210C003C20002318461037BD4680BD80B483B0F8
:10211C0000AF786000BF0C37BD4680BC704780B400
:10212C0083B000AF786000BF0C37BD4680BC7047F1
:10213C0080B483B000AF786000BF0C37BD4680BC64
:10214C00704780B483B000AF786000BF0C37BD46D9
:10215C0080BC704780B485B000AF786039607B6814
:10216C001B68FB607B68254A934207D07B68B3F100
:10217C00804F03D07B68224A934208D1FB6823F03E
:10218C007003FB603B685B68FA681343FB607B6819
:10219C001A4A934207D07B68B3F1804F03D07B6817
:1021AC00174A934208D1FB6823F44073FB603B68E9
:1021BC00DB68FA681343FB60FB6823F080023B6822
:1021CC005B691343FB607B68FA681A603B689A682A
:1021DC007B68DA623B681A687B689A627B68074A9C
:1021EC00934203D13B681A697B681A637B680122AE
:1021FC005A6100BF1437BD4680BC7047002C0140AB
:10220C000004004080B487B000AFF860B9607A6019
:10221C00FB681B6A7B61FB681B6A23F00102FB688D
:10222C001A62FB689B693B613B6923F0F0033B61DD
:10223C007B681B013A6913433B617B6923F00A03FA
:10224C007B617A69BB6813437B61FB683A699A616D
:10225C00FB687A691A6200BF1C37BD4680BC7047A8
:10226C0080B487B000AFF860B9607A60FB681B6A15
:10227C0023F01002FB681A62FB689B697B61FB68A8
:10228C001B6A3B617B6923F470437B617B681B0396
:10229C007A6913437B613B6923F0A0033B61BB6804
:1022AC001B013A6913433B61FB687A699A61FB68CD
:1022BC003A691A6200BF1C37BD4680BC704780B4B7
:1022CC0085B000AF786039607B689B68FB60FB6809
:1022DC0023F07003FB603A68FB68134343F0070379
:1022EC00FB607B68FA689A6000BF1437BD4680BCFF
:1022FC00704780B487B000AFF860B9607A603B601B
:10230C00FB689B687B617B6923F47F437B613B6843
:10231C001A027B681A43BB6813437A6913437B61C7
:10232C00FB687A699A6000BF1C37BD4680BC704759
:10233C0080B485B000AF786039607B6893F83C302E
:10234C00012B01D1022341E07B68012283F83C2060
:10235C007B68022283F83D207B681B685B68FB600E
:10236C007B681B689B68BB60FB6823F07003FB6099
:10237C003B681B68FA681343FB607B681B68FA6850
:10238C005A607B681B68144A934209D07B681B68AF
:10239C00B3F1804F04D07B681B68104A93420CD178
:1023AC00BB6823F08003BB603B685B68BA6813436F
:1023BC00BB607B681B68BA689A607B68012283F8F3
:1023CC003D207B68002283F83C20002318461437FC
:1023DC00BD4680BC704700BF002C0140000400408B
:1023EC0080B483B000AF786000BF0C37BD4680BCB2
:1023FC00704780B483B000AF786000BF0C37BD4627
:10240C0080BC704770B500260C4D0D4C641BA4109D
:10241C00A64209D100F022F800260A4D0A4C641B92
:10242C00A410A64205D170BD55F8043B984701365F
:10243C00EEE755F8043B98470136F2E7A024000874
:10244C00A0240008A0240008A42400080346024489
:10245C00934200D1704703F8011BF9E7F8B500BFB0
:10246C00F8BC08BC9E467047F8B500BFF8BC08BC69
:04247C009E467047C1
:1024800002030405060708090A0B0C0D0E0F1010B5
:102490000000000000000000010203040607080914
:0424A00031010008FE
:0424A4000D0100081E
:1024A8000F000000050000003200000001000000DD
:1024B800020000000300000004000000E7C3C39905
:1024C80000003C3C0A0000000024F400100000005A
:0424D80001000000FF
:0400000508000DF1F1
:00000001FF
